:020000040800F2
:10000000B806002089010008E50F0008DD0F000890
:10001000E10F000845020008F90F00080000000089
:10002000000000000000000000000000ED0F0008CC
:100030004902000800000000E90F0008F10F000865
:10004000A3010008A3010008A3010008A301000800
:10005000A3010008A3010008A3010008A3010008F0
:10006000A3010008A3010008A3010008A3010008E0
:10007000A3010008A3010008A3010008A3010008D0
:10008000A3010008A3010008A3010008A3010008C0
:10009000A3010008A3010008A3010008A3010008B0
:1000A000A3010008A3010008A3010008A3010008A0
:1000B000A3010008A3010008A3010008A301000890
:1000C000A3010008A3010008A3010008A301000880
:1000D000A3010008A3010008A3010008A301000870
:1000E000A3010008A3010008A301000800F002F822
:1000F00000F03AF80AA090E8000C82448344AAF188
:100100000107DA4501D100F02FF8AFF2090EBAE885
:100110000F0013F0010F18BFFB1A43F0010318473B
:10012000F80F000018100000103A24BF78C878C1FA
:10013000FAD8520724BF30C830C144BF04680C60ED
:10014000704700000023002400250026103A28BF35
:1001500078C1FBD8520728BF30C148BF0B60704739
:100160001FB51FBD10B510BD00F031F81146FFF7E7
:10017000F7FF00F043FF00F04FF803B4FFF7F2FF82
:1001800003BC00F057F800000948804709480047C1
:10019000FEE7FEE7FEE7FEE7FEE7FEE7FEE7FEE737
:1001A000FEE7FEE704480549054A064B7047000094
:1001B000F50F0008ED000008B8000020B806002088
:1001C000B8020020B802002070477047704775469B
:1001D00000F02CF8AE4605006946534620F00700B3
:1001E000854618B020B5FFF7DDFFBDE820404FF091
:1001F00000064FF000074FF000084FF0000BAC4630
:10020000ACE8C009ACE8C009ACE8C009ACE8C0097A
:1002100021F007018D46704710B50446AFF300800A
:100220002046BDE81040FFF7A8BF00000048704717
:100230001000002001491820ABBEFEE72600020096
:1002400070470000FEE70000704700002DE9F04F06
:1002500082B041F20042C4F201020E6804239042CF
:1002600008BF0323002E009300F0F68040F20C4EEE
:100270004FF6FF7CC4F2010E00220124C1F2100CE3
:100280004FF0000A4FF0000943E000BF012502F0E3
:100290000C040F27A7402BEA070705FA04F43C4398
:1002A00043F82640D1F804B040F20045C4F20105FD
:1002B0005FEACB332B6854BF23EA080343EA080301
:1002C0002B606B685FEA8B3454BF23EA080343EA70
:1002D00008036B605FEACB24AB6854BF23EA0803D2
:1002E00043EA08035FEA8B24AB60DEF800304FF08E
:1002F000010454BF23EA080343EA0803CEF80030A0
:100300000E680AF1010A36FA0AF302F1040200F05B
:10031000A38004FA0AF816EA080FF1D04B68634587
:1003200012DC122B56D8DFE803F0350B4549555542
:1003300055555555555555555555554D510000BFB9
:10034000D1F80C9046E000BF4FF6FF77C1F22107CD
:10035000BB420FDC0027C1F21107BB421AD00027B5
:10036000C1F21207BB4215D00027C1F22107BB42E0
:1003700010D02FE00027C1F22207BB420AD000278D
:10038000C1F23107BB4205D00027C1F23207BB42A0
:1003900020D100BF8B684BB1012B14BFC0F8148073
:1003A000C0F810804FF0080914E000BF4FF00409B6
:1003B00010E000BFCB6803F108090BE04FF0000923
:1003C00008E000BFCB6803F1040903E0CB6803F148
:1003D0000C0900BF13460546BAF1080F24BF203BA5
:1003E00004352E680F279F40BE4309FA03F33343B9
:1003F0002B60CB79DB067FF583AF41F21804C4F2A2
:10040000020423684FEA9A0643F00103236023683D
:1004100040F6000403F001030193019B40F2004306
:10042000C4F20103A3F57E7353F826B0C4F20104AD
:10043000A0420FD040F60044C4F20104A0423FF4B1
:1004400025AF41F20004C4F20104009DA04208BFA0
:1004500002251CE700251AE702B0BDE8F08F000076
:1004600040F2B400C2F200000068704740F20000A1
:1004700040F2B401C2F20000C2F2000100780A6842
:10048000104408607047000080B542F20000C4F2DA
:100490000200016841F010010160032000F072F8D1
:1004A0000F2000F005F800F027F8002080BD0000C4
:1004B00070B540F20006C2F2000640F20801327840
:1004C000C2F200014FF47A730968B3FBF2F20446FA
:1004D000B1FBF2F1084600F047FB0F2C4FF001058D
:1004E00008D838B94FF0FF3021460022002500F02F
:1004F0001DF87460284670BD82B041F21800C4F245
:100500000200016841F001010160016801F0010190
:1005100001910199416841F080514160406800F0CB
:1005200080500090009802B07047000010B54EF661
:100530000C5CCEF2000CDCF80030C3F3022E8EF01F
:100540000704042C28BF0424BEF103034FF0FF3E30
:100550000EFA04F438BF0023A14399400EFA03F3C6
:100560009A43114300F00F02043A624409010C322D
:1005700000F16043B0F1FF3FC8BF03F56442117062
:1005800010BD00004EF60C51CEF200010A684FF685
:10059000FF031A4060F30A2242F0806040F0FD70D1
:1005A000086070472DE9F04381B0002800F0858095
:1005B00042F20008C4F202080446D8F800000D46D2
:1005C00000F0070088420CD2D8F8000020F00700A5
:1005D0002843C8F80000D8F8000000F00700A8423F
:1005E0006BD1206841F204098107C4F2020917D5D2
:1005F000410705D5D9F8001041F4E061C9F80010B1
:10060000010705D5D9F8001041F46051C9F8001070
:10061000D9F80010A26821F0F0011143C9F80010C8
:10062000C00741D1D8F8000000F00700A8420CD95B
:10063000D8F8000020F007002843C8F80000D8F8D8
:10064000000000F00700A84237D12068410707D515
:10065000D9F80010E26821F4E0611143C9F80010F4
:10066000000708D5D9F80000216920F4605040EA5D
:10067000C100C9F80000D9F8002002F00C000828D9
:1006800041F20020C0F27A0050D141F20813C2F3C7
:100690008341C0F60003595CD2033BD440F60010FE
:1006A000C0F23D00484341E0606802280AD00128BA
:1006B0002AD159F8041C890308D4012001B0BDE8EF
:1006C000F08300BF59F8041C8901F6D5D9F8001051
:1006D00021F003010843C9F80000FFF7C1FE0646F8
:1006E00041F28837D9F80000616800F00C00B0EBE7
:1006F000810F97D0FFF7B4FE801BB842F2D90320D8
:1007000001B0BDE8F08300BF59F8041C8907D4D5B7
:10071000DCE700BFD9F8002041F2EE03C2F340420B
:10072000C0F600039A5C4843B0FBF2F0D9F8001021
:1007300041F2F002C1F30311C0F60002515C40F235
:10074000080220FA01F140F20400C2F20000006841
:10075000C2F200021160FFF7ABFE002001B0BDE85D
:10076000F083000040F2080041F20401C2F20000F0
:10077000C4F202010068096841F20012C1F30221CB
:10078000C0F60002515CC8407047000040F208000B
:1007900041F20401C2F20000C4F2020100680968DB
:1007A00041F20012C1F3C221C0F60002515CC84000
:1007B000704700002DE9F04182B0002868D004465F
:1007C000007841F20006C007C4F2020625D0706826
:1007D00000F00C0004281BD0706800F00C00082802
:1007E00002D17068C00313D46068002800F06881EB
:1007F000B0F5A02F00F07C81B0F5803F00F07C8147
:10080000306820F480303060306820F4802076E159
:100810003068800301D56068D0B32078800718D590
:10082000706810F00C0F07D0706800F00C000828FA
:100830006ED17068C0036BD43068800702D5206920
:10084000012825D13068616920F0F80040EAC10034
:100850003060207800071FD42078400732D4E56943
:1008600095B1706800F00C00082840F08F80012DD1
:100870000ED07068216A00F480328A4208D1616A21
:1008800000F47010884203D1002002B0BDE8F0816E
:10089000012002B0BDE8F081A069002862D00020EC
:1008A000C4F242200121C0F88014FFF7D9FD0546AB
:1008B000706A800700F18C80FFF7D2FD401B022890
:1008C000F6D92AE1F06910F0805808D1F06940F0BB
:1008D0008050F061F06900F080500090009847F27D
:1008E0000007C4F200073868C00529D4386840F40E
:1008F00080703860FFF7B4FD054600BF3868C0055A
:100900001ED4FFF7ADFD401B6428F7D905E100BFF9
:100910002069002840F20000C4F2422000F08280EA
:1009200001210160FFF79CFD054600BF306880078C
:100930003FF588AFFFF794FD401B0228F6D9ECE0A5
:10094000E068002800F08080052800F097800128EA
:1009500000F09880306A20F001003062306A20F0A8
:10096000040092E00020C4F242200021C0F880146C
:10097000FFF776FD054600BF706A80077FF56CAF14
:10098000FFF76EFD401B0228F6D9C6E00027C4F22F
:10099000422700203866FFF763FD022D05460BD184
:1009A0003068800140F1BE80FFF75AFD401B0228ED
:1009B0004FF00300F4D968E7306880017FF564AF39
:1009C000FFF74EFD401B02284FF00300F4D95CE70F
:1009D00040F20800C2F20000006844F6D351C1F2B0
:1009E0006201A0FB0101480A019000BF00BF01980D
:1009F000411E002801913FF42FAF00BF0198411E16
:100A0000002801913FF428AF00BF0198411E002843
:100A100001913FF421AF00BF0198411E00280191D0
:100A2000E4D119E700210160FFF71AFD054600BF78
:100A3000306880077FF50DAFFFF712FD401B0228DD
:100A40004FF00300F4D920E7306A20F00100306253
:100A5000306A20F004003062FFF702FD054641F2E3
:100A6000883700BF306A800720D5FFF7F9FC401BAC
:100A7000B8424FF00300F5D907E700BF306A40F0F5
:100A800004003062306A40F001003062FFF7E8FC99
:100A9000054641F2883700BF306A800706D4FFF769
:100AA000DFFC401BB842F7D937E000BFB8F1000FB8
:100AB0007FF4D5AEF06920F08050F061CFE600BF42
:100AC000306820F480303060306820F4802030605E
:100AD000FFF7C6FC054600BF306880037FF59DAE7A
:100AE000FFF7BEFC401B64284FF00300F4D9CCE6AE
:100AF000306840F480203060306840F480303060EE
:100B0000FFF7AEFC054600BF306880033FF585AEB9
:100B1000FFF7A6FC401B6428F6D9032002B0BDE80D
:100B2000F08100BF206AB0F5803F05D17168A268EE
:100B300021F40031114371607168626A21F474110B
:100B400010430843706001203866FFF789FC0446B3
:100B5000306880013FF598AEFFF782FC001B022849
:100B60004FF00300F4D990E6411E0020B0EB116F66
:100B70001CBF012070474EF21002CEF200025160FD
:100B80004EF62351CEF20001F0230B700721906046
:100B900011607047002804BF0120704710B504465B
:100BA00090F83D0028B9002084F83C00204600F071
:100BB0005FF8242084F83D002068D4E90212C3685D
:100BC00023F40053C360036923F440531A430261C2
:100BD000D4E904231143C268194341F20C639A43D8
:100BE0001143C1604169A26921F44071114343F688
:100BF0000002C4F201029042416103D0FFF7B2FD4E
:100C000002E000BFFFF7C2FD62681921484391006E
:100C1000B0FBF1F048F21F51C5F2EB11A0FB01232C
:100C20005A096FF0630302FB0300322303EB001049
:100C3000A0FB0101F02303EA5113206803EB021229
:100C4000C1F3431111448160016921F490410161B4
:100C5000416921F02A014161C16841F40051C1603C
:100C600000202021206484F83D1084F83E1010BD3F
:100C700070B586B040F60004C4F20104006804F5C3
:100C8000405100268842049602D006B070BD00BFD5
:100C900041F21800C4F20200016802AD41F4804143
:100CA0000160016801F4804101910199016841F0FE
:100CB000040101600068294600F0040001900198D9
:100CC0004FF400700290022003900320059020460C
:100CD000FFF7BCFA4FF48060CDE9020620462946B2
:100CE0000496FFF7B3FA06B070BD00002DE9F0439B
:100CF00081B0044690F83E0020280DD10E46002910
:100D00004FF0010000F08E801746002A00F08A8024
:100D100094F83C00012803D1022001B0BDE8F08323
:100D2000012084F83C004FF0000922201D46C4F841
:100D3000409084F83E00C4F83090FFF791FBA785FF
:100D4000E785A1680746B1F5805F0BD120690028CF
:100D50001CBF30464E46B046064684F83C90E08DB7
:100D600038B95BE04FF0000884F83C90E08D002833
:100D700054D005F101090BE0406800266FF35F20B5
:100D800028F8020BE08D0138E085E08D002845D081
:100D90002068016889060DD4B9F1000F18D04DB351
:100DA000FFF75EFBC11B2068A94223D801688906B2
:100DB000F6D500BF002EDFD0A168B1F5805F15D059
:100DC00009B9216991B1406800F07F000FE000BFD0
:100DD00001688906EED4016889065CBF01685FEA94
:100DE0008161E7D401688906F2D5E3E7406806F837
:100DF000010BC7E7C16821F4D071C160416921F0DE
:100E000001014161202084F83D0084F83E0000206B
:100E100084F83C00032001B0BDE8F083202084F872
:100E20003E00002001B0BDE8F08300002DE9F04352
:100E300081B0044690F83D0020280DD10F460029CE
:100E40004FF0010000F092801646002A00F08E80DC
:100E500094F83C00012803D1022001B0BDE8F083E2
:100E6000012084F83C004FF0000921201D46C4F801
:100E7000409084F83D00FFF7F3FAA684E684A16869
:100E80008046B1F5805F25D1206900281CBF384617
:100E90004F463E46074684F83C90E08C00B3681C01
:100EA00020D0002D66D120680BE000BF36F8021B71
:100EB00000276FF35F214160E18C0139E184E18C0F
:100EC00081B30168090675D5002FEFD017F8011B13
:100ED000F1E700BF002684F83C90E08C0028DED1CA
:100EE00020681FE0206802E00168090609D4016853
:100EF000090606D4016809065CBF01685FEA016162
:100F0000F2D51FB117F8011B05E000BF36F8021B30
:100F100000276FF35F214160E18C0139E184E18CAE
:100F20000029E4D1016849061CD4002D42D0691C77
:100F30000ED10168490615D4016849065CBF0168F5
:100F40005FEA41610ED401684906F2D50AE000BFAC
:100F5000FFF786FAA0EB08012068A9422AD80068AA
:100F60004006F5D5202084F83D00002001B0BDE802
:100F7000F08300BF206800BF0168090608D4FFF7AE
:100F80006FFAA0EB08012068A942F5D912E000BF72
:100F900017B117F8011B04E036F8021B00276FF3A6
:100FA0005F214160E18C0139E184E18C0029E3D1CA
:100FB000B8E700BFC16821F4D071C160416921F078
:100FC00001014161202084F83D0084F83E000020AA
:100FD00084F83C00032001B0BDE8F083FEE7000088
:100FE000FEE70000FEE700007047000070470000C9
:100FF000FFF73CBA70470000FEE7000090B0FFF733
:1010000043FA00240120CDE90B44CDE909440690C0
:101010000A904FF4E0104FF4803102250F9006A89B
:10102000CDE90714CDE90D51FFF7C4FB20B1EFF373
:10103000108072B6FEE700BF0F20CDE901054FF426
:101040008060CDE9040401A802210394FFF7AAFA05
:1010500020B1EFF3108072B6FEE700BF41F2180036
:10106000C4F202000168002341F020010160016820
:101070000C2501F020010691069901684FF41652E3
:1010800041F004010160006843F6000100F0040033
:101090000690069840F27000C2F20000C4F201010E
:1010A00080E80E00C0E90333C0E90553C361FFF7D0
:1010B00071FD28B1EFF3108072B600BFFEE700BFEC
:1010C00040F27004C2F2000406AD00BF204629467B
:1010D00001224FF4FA73FFF709FE0028F6D12046EB
:1010E000294601224FF4FA73FFF7A0FEEEE7010252
:1010F00000000000000000000102030406070809C8
:1011000000000000010203040203040506070809A9
:101110000A0B0C0D0E0F10103811000800000020F3
:1011200010000000280100084811000810000020ED
:10113000A8060000440100080100000010000000A3
:081140000024F400000000008F
:04000005080000ED02
:00000001FF
