:020000040800F2
:10000000B80A002091010008811400087914000842
:100010007D140008910400089514000800000000F9
:10002000000000000000000000000000891400082B
:100030009504000800000000851400088D140008D5
:10004000AB010008AB010008AB010008AB010008E0
:10005000AB010008AB010008AB010008AB010008D0
:10006000AB010008AB010008AB010008AB010008C0
:10007000AB010008AB010008AB010008AB010008B0
:10008000AB010008AB010008AB010008AB010008A0
:10009000AB010008AB010008AB010008AB01000890
:1000A000AB010008AB010008AB010008AB01000880
:1000B000AB010008AB010008AB010008AB01000870
:1000C000AB010008AB010008AB010008AB01000860
:1000D000AB010008AB010008AB010008AB01000850
:1000E000AB010008AB010008AB01000800F002F80A
:1000F00000F03FF80AA090E8000C82448344AAF183
:100100000107DA4501D100F034F8AFF2090EBAE880
:100110000F0013F0010F18BFFB1A43F0010318473B
:100120005417000074170000103A24BF78C878C133
:10013000FAD8520724BF30C830C144BF04680C60ED
:10014000704700000023002400250026103A28BF35
:1001500078C1FBD8520728BF30C148BF0B60704739
:10016000642900F07D80002070471FB51FBD10B5C9
:1001700010BD00F052F91146FFF7F7FF01F09CFAAD
:1001800000F070F903B4FFF7F2FF03BC00F078F958
:100190000948804709480047FEE7FEE7FEE7FEE71B
:1001A000FEE7FEE7FEE7FEE7FEE7FEE70448054957
:1001B000054A064B7047000091140008ED00000846
:1001C000B8040020B80A0020B8060020B8060020B5
:1001D0000FB41CB5074B06AA7B44694600900598EE
:1001E00000F003F90020694600F012F91CBC5DF82C
:1001F00014FB0000350200002DE9F0410E460446D4
:10020000002020622046E168884730B3252805D0C9
:10021000D4E901219047206A401CF2E7E1682046BA
:1002200000278847050018D0A5F14100192802D8F9
:1002300020354FF400673246294620462760FFF7F5
:100240008FFF40B1012804D0F61D26F007060836BE
:10025000D8E7361DD6E72846DAE7206ABDE8F08100
:100260002DE9F0410646002410687529314616A58F
:1002700010D0AFF30080002802DA404213A507E057
:1002800031688A0701D512A502E0490704D511A5F6
:10029000012401E0AFF3008000210A2206F12407C7
:1002A00009E0B0FBF2FCB0FBF2F302FB1C003030C3
:1002B00078541846491C0028F3D123462A46304674
:1002C000BDE8F04100F032B8000000002D00000051
:1002D0002B000000200000004FF0000200B5134684
:1002E00094469646203922BFA0E80C50A0E80C5056
:1002F000B1F12001BFF4F7AF090728BFA0E80C5007
:1003000048BF0CC05DF804EB890028BF40F8042BFF
:1003100008BF704748BF20F8022B11F0804F18BF6C
:1003200000F8012B70477047704770472DE9F04780
:100330000D4699469246044600F124080168880655
:1003400004D5E06921F01001216000E00120A842FD
:1003500001DD471B00E00027A1697A1902EB0900C3
:10036000081AA0612078C00602D42046AFF30080AE
:10037000002608E0D4E901211AF806009047206A17
:10038000401C761C20624E45F4DB2078C0060AD55E
:100390002046AFF3008006E0D4E9012130209047E9
:1003A000206A401C2062381EA7F10107F4DC07E038
:1003B000D4E9012118F805009047206A401C20620A
:1003C000281EA5F10105F3DC2046AFF3008020785C
:1003D000000602D50220BDE8F0870120FBE70000FF
:1003E00001694A1C02610878704700B58FB0CDE9F9
:1003F00001310021059105497944CDE903101146E9
:100400006846FFF7F9FE0FB000BD0000E5FFFFFFF3
:100410000A6802F8010B0A607047754600F02CF874
:10042000AE4605006946534620F00700854618B0E1
:1004300020B5FFF7BBFEBDE820404FF000064FF0AF
:1004400000074FF000084FF0000BAC46ACE8C009C5
:10045000ACE8C009ACE8C009ACE8C00921F007016C
:100460008D46704710B50446AFF300802046BDE8C6
:100470001040FFF787BE00000048704710000020C2
:1004800001491820ABBEFEE72600020070470000BD
:10049000FEE7000070470000B0B5044600F028F900
:1004A000054640F20000C2F200000078611C18BF4F
:1004B000044400BF00F01CF9401BA042FAD3B0BDB9
:1004C0002DE9F04F82B041F20042C4F201020E6801
:1004D0000423904208BF0323002E009300F0F6800F
:1004E00040F20C4E4FF6FF7CC4F2010E00220124B4
:1004F000C1F2100C4FF0000A4FF0000943E000BFBA
:10050000012502F00C040F27A7402BEA070705FA84
:1005100004F43C4343F82640D1F804B040F20045CF
:10052000C4F201055FEACB332B6854BF23EA08030A
:1005300043EA08032B606B685FEA8B3454BF23EAFD
:10054000080343EA08036B605FEACB24AB6854BF3F
:1005500023EA080343EA08035FEA8B24AB60DEF872
:1005600000304FF0010454BF23EA080343EA0803B4
:10057000CEF800300E680AF1010A36FA0AF302F1E9
:10058000040200F0A38004FA0AF816EA080FF1D07A
:100590004B68634512DC122B56D8DFE803F0350BAD
:1005A0004549555555555555555555555555554D1F
:1005B000510000BFD1F80C9046E000BF4FF6FF7726
:1005C000C1F22107BB420FDC0027C1F21107BB4279
:1005D0001AD00027C1F21207BB4215D00027C1F282
:1005E0002107BB4210D02FE00027C1F22207BB42F7
:1005F0000AD00027C1F23107BB4205D00027C1F263
:100600003207BB4220D100BF8B684BB1012B14BF16
:10061000C0F81480C0F810804FF0080914E000BF43
:100620004FF0040910E000BFCB6803F108090BE0AC
:100630004FF0000908E000BFCB6803F1040903E0B4
:10064000CB6803F10C0900BF13460546BAF1080F49
:1006500024BF203B04352E680F279F40BE4309FA74
:1006600003F333432B60CB79DB067FF583AF41F295
:100670001804C4F2020423684FEA9A0643F0010307
:100680002360236840F6000403F001030193019BFB
:1006900040F20043C4F20103A3F57E7353F826B081
:1006A000C4F20104A0420FD040F60044C4F2010499
:1006B000A0423FF425AF41F20004C4F20104009DC2
:1006C000A04208BF02251CE700251AE702B0BDE8DA
:1006D000F08F0000C26802EA0103914341EA03413E
:1006E00001617047002A08BF0904016170470000DA
:1006F00040F2B040C2F200000068704770B5B8B375
:10070000044690F83D0028B9002084F83C002046BB
:1007100000F0ECFA242084F83D002068016821F004
:1007200001010160016841F400410160016821F4A8
:100730000041016000F09CFC48F28041C0F21E01C3
:1007400040F60013D4F804E088424FF00001C0F2F4
:100750003D0348F2A16C4FF0000238BF01219842DE
:10076000C0F2010C38BF0122E64538BF0A460AB183
:10077000012070BD4DF68361C4F21B31A0FB011254
:100780002168950C4B684FF4967623F03F0343EABB
:100790009243754344F6D3564B60C1F262060B6A2E
:1007A000A5FB0656B50923F03F03E64538BF950C77
:1007B0006A1C1A430A62CA6948F2A0664CF6FF73C3
:1007C000C0F20106B64522EA03020BD801384FEA0F
:1007D0004E03B0FBF3F001306FF31F30042898BFD5
:1007E00004201EE0A368013863B119230EFB03F354
:1007F000B0FBF3F001306FF31F3078B100F58040AB
:1008000008E000BF0EEB4E03B0FBF3F001306FF3D6
:100810001F3028B100F5004003E000BF012000E0D8
:1008200001201043C8610868D4E9072320F0C00004
:10083000104318430860886848F2FF3204F10C0640
:1008400090434CCE18431043A5698860C86820F0D7
:10085000FF0030432843C860086840F0010008608A
:1008600000202021206484F83D10206384F83E009D
:1008700070BD00002DE9F04381B01F461646884642
:100880000446FFF735FF94F83D10202920D1054696
:1008900020688169890717D5FFF72AFF401B1928AF
:1008A000F6D900202021206384F83D1084F83E0012
:1008B000216C022641F02001216484F83C0030467E
:1008C00001B0BDE8F08300BF94F83C10012905D1C8
:1008D0000226304601B0BDE8F08300BF012184F854
:1008E0003C100168C90703D1016841F001010160B2
:1008F000016821F400610160212184F83D1010217C
:1009000084F83E100021216466626785618D21852F
:100910000021CFF6FF71E162E16A11F5803F18BF57
:10092000012919D1016841F4807101604169DDF844
:100930002090C90723D119F1010116D0B9F1000F98
:1009400046D000BFFFF7D4FE401B484542D8206880
:100950004169C907F6D012E00829E3D0216B1229BA
:10096000E0D0E3E74169C90709D14169C90706D168
:100970004169C90704BF41695FEAC171F2D02169C9
:10098000B1F5804F02D1FE2161E000BF062101EAEE
:10099000D811F03101614169090757D4416919F152
:1009A000010201F480612FD0002946D1B9F1000F76
:1009B00000F04281FFF79CFE401B484500F23E815B
:1009C00020684169090741D441694905F2D534E0FD
:1009D000FFF78EFE00202021206384F83D1084F86C
:1009E0003E00216C012641F020012164216884F839
:1009F0003C000868C00544BF4FF4007020643046D6
:100A000001B0BDE8F08300BFB9B9416909071DD441
:100A10004169490511D44169090717D4416949055C
:100A20000BD44169090711D44169490505D44169CD
:100A300009070BD441694905E7D5016841F4007104
:100A400001606FF4806141610420F8E0FF2101EA58
:100A500008010161416989073AD4416919F101022C
:100A600001F4806112D051BBB9F1000F00F0E080B9
:100A7000FFF73EFE401B484500F2DC8020684169DC
:100A8000890725D441694905F2D518E0B9B941690A
:100A900089071DD44169490511D44169890717D4D3
:100AA000416949050BD44169890711D44169490558
:100AB00005D4416989070BD441694905E7D5016827
:100AC00041F4007101606FF4806141610420B6E07F
:100AD0000026009641690091816900910099218D5D
:100AE000002900F0958009F10108014651F8142F02
:100AF000120635D4B8F1000F16D0B9F1000F00F08E
:100B0000AF8000BF0868400500F1B280FFF7F0FD3C
:100B1000401B484500F2A9802068014651F8142F77
:100B20001206EFD51CE000BF0A68520500F1A08054
:100B30000A68120614D40A68520500F199800A68FE
:100B400012060DD40A68520500F192800A68120656
:100B500006D40A68520500F18B800A681206E3D5B4
:100B6000636A194611F8012B02616162618D0139D6
:100B70006185278D0146A7F1010CA4F828C051F822
:100B8000142F52070DD55FEA0C420AD05A78A7F10C
:100B9000020C02619A1C6262628D013A6285A4F8BD
:100BA00028C00A6852072FD4B8F1000F14D0B9F149
:100BB000000F7BD00868400500F18080FFF798FDAA
:100BC000401B484577D82068014651F8142F52073A
:100BD000F0D5B4F828C017E00A6852056ED40A6848
:100BE000520711D40A68520568D40A6852070BD418
:100BF0000A68520562D40A68520705D40A68520589
:100C00005CD40A685207E7D55FEA0C417FF46DAF08
:100C1000016841F400710160202084F83D0084F8EF
:100C20003E6084F83C60304601B0BDE8F08300BF10
:100C3000FFF75EFD202002E0FFF75AFD2020002193
:100C40002022216384F83D2084F83E10226C012686
:100C50001043206484F83C10304601B0BDE8F083B6
:100C60000868400504D4FFF743FD202004E000BFDE
:100C70006FF480600860042000212022216384F842
:100C80003D2084F83E10226C1043206484F83C1010
:100C9000206C042825D120680126016841F40071E8
:100CA0000160304601B0BDE8F08300BF0868400530
:100CB00004D4FFF71DFD202004E000BF6FF4806026
:100CC0000860042000212022216384F83D2084F85C
:100CD0003E10226C1043206484F83C10206C0428E1
:100CE000D9D00126304601B0BDE8F08310B586B0FA
:100CF000006845F20042C4F20002002190420491D3
:100D000002D006B010BD00BF41F21804C4F20204C4
:100D1000206802A940F008002060206800F0080068
:100D2000019001984FF4407002901220039003202C
:100D3000059040F60040C4F20100FFF7C1FB04201B
:100D4000C4F20100016841F0E06141F0020101607C
:100D5000606840F400106060606800F4001001906A
:100D6000019806B010BD000040F2000040F2B04112
:100D7000C2F20000C2F2000100780A681044086064
:100D80007047000080B542F20000C4F20200016822
:100D900041F010010160032000F07AF80F2000F00C
:100DA00005F800F027F8002080BD000070B540F283
:100DB0000006C2F2000640F208013278C2F20001D9
:100DC0004FF47A730968B3FBF2F20446B1FBF2F117
:100DD000084600F03BFB0F2C4FF0010508D838B94E
:100DE0004FF0FF3021460022002500F025F8746006
:100DF000284670BD82B041F21800C4F202000168BA
:100E0000022241F001010160016801F0010101913C
:100E10000199416841F080514160406800F0805084
:100E2000009000980420C4F20100016862F31A6186
:100E3000016002B07047000010B54EF60C5CCEF2B7
:100E4000000CDCF80030C3F3022E8EF00704042CF3
:100E500028BF0424BEF103034FF0FF3E0EFA04F452
:100E600038BF0023A14399400EFA03F39A4311437C
:100E700000F00F02043A624409010C3200F16043B1
:100E8000B0F1FF3FC8BF03F56442117010BD000010
:100E90004EF60C51CEF200010A684FF6FF031A40DD
:100EA00060F30A2242F0806040F0FD7008607047F5
:100EB0002DE9F04381B0002800F0858042F200085F
:100EC000C4F202080446D8F800000D4600F00700FE
:100ED00088420CD2D8F8000020F007002843C8F858
:100EE0000000D8F8000000F00700A8426BD120688D
:100EF00041F204098107C4F2020917D5410705D55B
:100F0000D9F8001041F4E061C9F80010010705D5D7
:100F1000D9F8001041F46051C9F80010D9F8001058
:100F2000A26821F0F0011143C9F80010C00741D1B7
:100F3000D8F8000000F00700A8420CD9D8F800004B
:100F400020F007002843C8F80000D8F8000000F09F
:100F50000700A84237D12068410707D5D9F800100B
:100F6000E26821F4E0611143C9F80010000708D5D8
:100F7000D9F80000216920F4605040EAC100C9F8A6
:100F80000000D9F8002002F00C00082841F20020EF
:100F9000C0F27A0050D141F66203C2F38341C0F639
:100FA0000003595CD2033BD440F60010C0F23D0070
:100FB000484341E0606802280AD001282AD159F844
:100FC000041C890308D4012001B0BDE8F08300BFF0
:100FD00059F8041C8901F6D5D9F8001021F0030155
:100FE0000843C9F80000FFF783FB064641F2883743
:100FF000D9F80000616800F00C00B0EB810F97D0C9
:10100000FFF776FB801BB842F2D9032001B0BDE8A0
:10101000F08300BF59F8041C8907D4D5DCE700BF72
:10102000D9F8002041F64803C2F34042C0F600035D
:101030009A5C4843B0FBF2F0D9F8001041F64A023E
:10104000C1F30311C0F60002515C40F2080220FA1D
:1010500001F140F20400C2F200000068C2F2000296
:101060001160FFF7A3FE002001B0BDE8F08300008F
:1010700040F2080041F20401C2F20000C4F2020191
:101080000068096841F65A02C1F30221C0F6000265
:10109000515CC840704700002DE9F04182B0002843
:1010A00068D00446007841F20006C007C4F2020688
:1010B00025D0706800F00C0004281BD0706800F088
:1010C0000C00082802D17068C00313D4606800289F
:1010D00000F06881B0F5A02F00F07C81B0F5803F72
:1010E00000F07C81306820F480303060306820F47B
:1010F000802076E13068800301D56068D0B3207825
:10110000800718D5706810F00C0F07D0706800F0D9
:101110000C0008286ED17068C0036BD4306880075B
:1011200002D52069012825D13068616920F0F800D6
:1011300040EAC1003060207800071FD420784007C3
:1011400032D4E56995B1706800F00C00082840F0D1
:101150008F80012D0ED07068216A00F480328A429F
:1011600008D1616A00F47010884203D1002002B0F7
:10117000BDE8F081012002B0BDE8F081A06900283F
:1011800062D00020C4F242200121C0F88014FFF791
:10119000AFFA0546706A800700F18C80FFF7A8FA65
:1011A000401B0228F6D92AE1F06910F0805808D1D6
:1011B000F06940F08050F061F06900F080500090DC
:1011C000009847F20007C4F200073868C00529D428
:1011D000386840F480703860FFF78AFA054600BF2F
:1011E0003868C0051ED4FFF783FA401B6428F7D97E
:1011F00005E100BF2069002840F20000C4F242204F
:1012000000F0828001210160FFF772FA054600BFFD
:10121000306880073FF588AFFFF76AFA401B022865
:10122000F6D9ECE0E068002800F08080052800F0A6
:101230009780012800F09880306A20F00100306229
:10124000306A20F0040092E00020C4F24220002125
:10125000C0F88014FFF74CFA054600BF706A80079B
:101260007FF56CAFFFF744FA401B0228F6D9C6E0C1
:101270000027C4F2422700203866FFF739FA022D12
:1012800005460BD13068800140F1BE80FFF730FA8F
:10129000401B02284FF00300F4D968E73068800152
:1012A0007FF564AFFFF724FA401B02284FF00300DC
:1012B000F4D95CE740F20800C2F20000006844F68E
:1012C000D351C1F26201A0FB0101480A019000BFA5
:1012D00000BF0198411E002801913FF42FAF00BFCD
:1012E0000198411E002801913FF428AF00BF0198EA
:1012F000411E002801913FF421AF00BF0198411E1B
:1013000000280191E4D119E700210160FFF7F0F90D
:10131000054600BF306880077FF50DAFFFF7E8F99D
:10132000401B02284FF00300F4D920E7306A20F078
:1013300001003062306A20F004003062FFF7D8F913
:10134000054641F2883700BF306A800720D5FFF795
:10135000CFF9401BB8424FF00300F5D907E700BFB3
:10136000306A40F004003062306A40F001003062C0
:10137000FFF7BEF9054641F2883700BF306A8007A3
:1013800006D4FFF7B5F9401BB842F7D937E000BFE4
:10139000B8F1000F7FF4D5AEF06920F08050F06115
:1013A000CFE600BF306820F480303060306820F431
:1013B00080203060FFF79CF9054600BF306880034D
:1013C0007FF59DAEFFF794F9401B64284FF00300B2
:1013D000F4D9CCE6306840F480203060306840F4C6
:1013E00080303060FFF784F9054600BF3068800325
:1013F0003FF585AEFFF77CF9401B6428F6D9032042
:1014000002B0BDE8F08100BF206AB0F5803F05D191
:101410007168A26821F40031114371607168626AD9
:1014200021F4741110430843706001203866FFF7FF
:101430005FF90446306880013FF598AEFFF758F930
:10144000001B02284FF00300F4D990E6411E002053
:10145000B0EB116F1CBF012070474EF21002CEF2AC
:10146000000251604EF62351CEF20001F0230B70C2
:101470000721906011607047FEE70000FEE7000062
:10148000FEE700007047000070470000FFF76CBCEB
:1014900070470000FEE700002DE9F04184B048F6F7
:1014A0008C0040F27404C0F60C00C2F200040290FA
:1014B0004FF0640802AA20464E210423CDF8008094
:1014C000FFF7D8F942F62D164627C0F60D1603ADE4
:1014D00020464E212A4604230396CDF80080FFF7CC
:1014E000C9F9013FF4D104B0BDE8F08170B582B014
:1014F0003220FEF7D1FF40F2740443F63C06C2F2FC
:101500000004C0F60C06642501AA20464E210423DF
:1015100001960095FFF7AEF90520FEF7BDFF01AA81
:1015200020464E21042301960095FFF7A3F90120E0
:10153000FEF7B2FF01AA20464E2104230196009532
:10154000FFF798F90A20FEF7A7FF42F62C00C0F635
:101550000C00019001AA20464E2104230095FFF7BC
:1015600089F90A20FEF798FF42F62C00C8F68C0095
:10157000019001AA20464E2104230095FFF77AF935
:101580000120FEF789FF40F60C00C8F68C000190A0
:1015900001AA20464E2104230095FFF76BF9012094
:1015A000FEF77AFF40F60C00C1F61C00019001AA7C
:1015B00020464E2104230095FFF75CF90120FEF739
:1015C0006BFF0120FEF768FF40F60C00C6F66C00CA
:1015D000019001AA20464E2104230095FFF74AF905
:1015E0000120FEF759FF40F60C00CCF6CC0001902C
:1015F00001AA20464E2104230095FFF73BF902B0D3
:1016000070BD0000012805D0002808BF41F080010E
:1016100002E000BF41F0C00180B582B021F00F00B0
:10162000090100F10C0208308DF8050001F10C00F1
:101630008DF8060001F108008DF8070040F27400F3
:101640008DF804204FF0640CC2F2000001AA4E2174
:101650000423CDF800C0FFF70DF902B080BD0000F3
:10166000F0B583B0017821B340F27404461E6427BC
:10167000C2F2000402AD00BF21F00F00090100F129
:101680000D0209308DF8090001F10D008DF80A00F6
:1016900001F109008DF808208DF80B0020464E213D
:1016A0002A4604230097FFF7E5F8B17801360029B0
:1016B000E2D103B0F0BD000090B0FFF763FB06ACD1
:1016C000201D2421FEF708FE0220069001200A902A
:1016D00010200B90002520460D95FFF7DDFC28B16A
:1016E000EFF3108072B600BFFEE700BF0F20CDE918
:1016F000010501A80021CDE903550595FFF7D8FBA9
:1017000020B1EFF3108072B6FEE700BF41F218007F
:10171000C4F20200016841F2000841F010010160CA
:101720000168C4F2010801F01001069106990168F0
:10173000002241F02001016001684FF4005401F0E3
:101740002001069106990168002541F0040101601D
:10175000016801F0040106910699016841F0080151
:10176000016000684FF4005100F0080006900698F0
:101770004046FEF7B7FF0120CDE90705022009909A
:1017800006A940460694FEF79BFE40F27004C2F2A2
:101790000004A8F53C41204640F8041F48F2A0612F
:1017A000C0F201014FF48042C0E90115C0E90352C3
:1017B000C0E90555C0E90755FEF7A0FF20B1EFF3DA
:1017C000108072B6FEE700BFFFF790FE6420FEF7C0
:1017D00063FE40F2C80615A5C2F2000616A700BFB8
:1017E00040464FF40051FEF775FFC820FEF754FE47
:1017F000FFF752FE00200321FFF704FF2846FFF702
:101800002FFF01200021FFF7FDFE227830463946E8
:10181000FEF7DEFC3046FFF723FF20780130207012
:101820004FF4FA70FEF738FEDAE700BF49204C6F3C
:10183000766520596F7500004C434420434F554E48
:1018400054203A202564000001020000000000003E
:10185000000001020304060708090000000001025D
:10186000030402030405060708090A0B0C0D0E0FFA
:101870001010000098180008000000201000000060
:1018800028010008A818000810000020A80A00007D
:1018900044010008000000000100000010000000EA
:0818A0000024F4000000000028
:04000005080000ED02
:00000001FF
