:020000040800F2
:100000009006002091010008950E0008450D00089B
:10001000910E000801040008A90E0008000000006D
:100020000000000000000000000000009D0E00081D
:100030000504000800000000990E0008A10E000849
:10004000AB010008AB010008AB010008AB010008E0
:10005000AB010008AB010008AB010008AB010008D0
:10006000AB010008AB010008AB010008AB010008C0
:10007000AB010008AB010008AB010008AB010008B0
:10008000AB010008AB010008AB010008AB010008A0
:10009000AB010008AB010008AB010008AB01000890
:1000A000AB010008AB010008AB010008AB01000880
:1000B000AB010008AB010008AB010008AB01000870
:1000C000AB010008AB010008AB010008AB01000860
:1000D000AB010008AB010008AB010008AB01000850
:1000E000AB010008AB010008AB01000800F002F80A
:1000F00000F03FF80AA090E8000C82448344AAF183
:100100000107DA4501D100F034F8AFF2090EBAE880
:100110000F0013F0010F18BFFB1A43F0010318473B
:10012000E00F000000100000103A24BF78C878C12A
:10013000FAD8520724BF30C830C144BF04680C60ED
:10014000704700000023002400250026103A28BF35
:1001500078C1FBD8520728BF30C148BF0B60704739
:10016000642900F03580002070471FB51FBD10B511
:1001700010BD00F00BF91146FFF7F7FF00F056FF36
:1001800000F029F903B4FFF7F2FF03BC00F030F9E7
:100190000948804709480047FEE7FEE7FEE7FEE71B
:1001A000FEE7FEE7FEE7FEE7FEE7FEE70448054957
:1001B000054A064B70470000A50E0008ED00000838
:1001C0009000002090060020900200209002002065
:1001D0002DE9F0410646002410687529314616A520
:1001E00010D0AFF30080002802DA404213A507E0E8
:1001F00031688A0701D512A502E0490704D511A587
:10020000012401E0AFF3008000210A2206F1240757
:1002100009E0B0FBF2FCB0FBF2F302FB1C00303053
:1002200078541846491C0028F3D123462A46304604
:10023000BDE8F04100F051B8000000002D000000C2
:100240002B0000002000000010B5431C02E010F855
:10025000011B71B18107FAD14FF0013202C88C1A2B
:100260008C4314EAC211F9D0C01A0A0603D0C01E8A
:1002700010BDC01A10BD0A0401D0801E10BD0902B5
:10028000FCD0401E10BD4FF0000200B5134694464E
:100290009646203922BFA0E80C50A0E80C50B1F1DE
:1002A0002001BFF4F7AF090728BFA0E80C5048BFF2
:1002B0000CC05DF804EB890028BF40F8042B08BF90
:1002C000704748BF20F8022B11F0804F18BF00F88C
:1002D000012B70477047704770472DE9F0470D4676
:1002E00099469246044600F124080168880604D520
:1002F000E06921F01001216000E00120A84201DD49
:10030000471B00E00027A1697A1902EB0900081ACF
:10031000A0612078C00602D42046AFF300800026FA
:1003200008E0D4E901211AF806009047206A401C31
:10033000761C20624E45F4DB2078C0060AD52046A4
:10034000AFF3008006E0D4E9012130209047206A15
:10035000401C2062381EA7F10107F4DC07E0D4E955
:10036000012118F805009047206A401C2062281ED1
:10037000A5F10105F3DC2046AFF3008020780006EC
:1003800002D50220BDE8F0870120FBE7754600F0AA
:100390002BF8AE4605006946534620F00700854617
:1003A00018B020B5FFF702FFBDE820404FF000066F
:1003B0004FF000074FF000084FF0000BAC46ACE8E0
:1003C000C009ACE8C009ACE8C009ACE8C00921F03C
:1003D00007018D46704710B50446AFF300802046F4
:1003E000BDE81040FFF7CEBE00487047280000204F
:1003F00001491820ABBEFEE726000200704700004E
:10040000FEE7000070470000B0B5044600F020F998
:10041000054640F21800C2F200000078611C18BFC7
:10042000044400BF00F014F9401BA042FAD3B0BD51
:100430002DE9F04F82B041F20042C4F201020E6891
:100440000423904208BF0323002E009300F0F6809F
:1004500040F20C4E4FF6FF7CC4F2010E0022012444
:10046000C1F2100C4FF0000A4FF0000943E000BF4A
:10047000012502F00C040F27A7402BEA070705FA15
:1004800004F43C4343F82640D1F804B040F2004560
:10049000C4F201055FEACB332B6854BF23EA08039B
:1004A00043EA08032B606B685FEA8B3454BF23EA8E
:1004B000080343EA08036B605FEACB24AB6854BFD0
:1004C00023EA080343EA08035FEA8B24AB60DEF803
:1004D00000304FF0010454BF23EA080343EA080345
:1004E000CEF800300E680AF1010A36FA0AF302F17A
:1004F000040200F0A38004FA0AF816EA080FF1D00B
:100500004B68634512DC122B56D8DFE803F0350B3D
:100510004549555555555555555555555555554DAF
:10052000510000BFD1F80C9046E000BF4FF6FF77B6
:10053000C1F22107BB420FDC0027C1F21107BB4209
:100540001AD00027C1F21207BB4215D00027C1F212
:100550002107BB4210D02FE00027C1F22207BB4287
:100560000AD00027C1F23107BB4205D00027C1F2F3
:100570003207BB4220D100BF8B684BB1012B14BFA7
:10058000C0F81480C0F810804FF0080914E000BFD4
:100590004FF0040910E000BFCB6803F108090BE03D
:1005A0004FF0000908E000BFCB6803F1040903E045
:1005B000CB6803F10C0900BF13460546BAF1080FDA
:1005C00024BF203B04352E680F279F40BE4309FA05
:1005D00003F333432B60CB79DB067FF583AF41F226
:1005E0001804C4F2020423684FEA9A0643F0010398
:1005F0002360236840F6000403F001030193019B8C
:1006000040F20043C4F20103A3F57E7353F826B011
:10061000C4F20104A0420FD040F60044C4F2010429
:10062000A0423FF425AF41F20004C4F20104009D52
:10063000A04208BF02251CE700251AE702B0BDE86A
:10064000F08F0000002A08BF090401617047000014
:1006500040F28800C2F200000068704740F21800C3
:1006600040F28801C2F20000C2F2000100780A687C
:10067000104408607047000080B542F20000C4F2E8
:100680000200016841F010010160032000F07AF8D7
:100690000F2000F005F800F027F8002080BD0000D2
:1006A00070B540F21806C2F2000640F2200132781E
:1006B000C2F200014FF47A730968B3FBF2F2044608
:1006C000B1FBF2F1084600F027FB0F2C4FF00105BB
:1006D00008D838B94FF0FF3021460022002500F03D
:1006E00025F87460284670BD82B041F21800C4F24B
:1006F00002000168022241F001010160016801F07D
:10070000010101910199416841F0805141604068C7
:1007100000F08050009000980420C4F201000168AD
:1007200062F31A61016002B07047000010B54EF626
:100730000C5CCEF2000CDCF80030C3F3022E8EF01D
:100740000704042C28BF0424BEF103034FF0FF3E2E
:100750000EFA04F438BF0023A14399400EFA03F3C4
:100760009A43114300F00F02043A624409010C322B
:1007700000F16043B0F1FF3FC8BF03F56442117060
:1007800010BD00004EF60C51CEF200010A684FF683
:10079000FF031A4060F30A2242F0806040F0FD70CF
:1007A000086070472DE9F04381B0002800F0858093
:1007B00042F20008C4F202080446D8F800000D46D0
:1007C00000F0070088420CD2D8F8000020F00700A3
:1007D0002843C8F80000D8F8000000F00700A8423D
:1007E0006BD1206841F204098107C4F2020917D5D0
:1007F000410705D5D9F8001041F4E061C9F80010AF
:10080000010705D5D9F8001041F46051C9F800106E
:10081000D9F80010A26821F0F0011143C9F80010C6
:10082000C00741D1D8F8000000F00700A8420CD959
:10083000D8F8000020F007002843C8F80000D8F8D6
:10084000000000F00700A84237D12068410707D513
:10085000D9F80010E26821F4E0611143C9F80010F2
:10086000000708D5D9F80000216920F4605040EA5B
:10087000C100C9F80000D9F8002002F00C000828D7
:1008800041F20020C0F27A0050D141F2EE03C2F3EF
:100890008341C0F60003595CD2033BD440F60010FC
:1008A000C0F23D00484341E0606802280AD00128B8
:1008B0002AD159F8041C890308D4012001B0BDE8ED
:1008C000F08300BF59F8041C8901F6D5D9F800104F
:1008D00021F003010843C9F80000FFF7B9FE0646FE
:1008E00041F28837D9F80000616800F00C00B0EBE5
:1008F000810F97D0FFF7ACFE801BB842F2D90320DE
:1009000001B0BDE8F08300BF59F8041C8907D4D5B5
:10091000DCE700BFD9F8002041F2DC03C2F340421B
:10092000C0F600039A5C4843B0FBF2F0D9F800101F
:1009300041F2DE02C1F30311C0F60002515C40F245
:10094000200220FA01F140F21C00C2F2000000680F
:10095000C2F200021160FFF7A3FE002001B0BDE863
:10096000F08300002DE9F04182B0002868D00446F1
:10097000007841F20006C007C4F2020625D0706874
:1009800000F00C0004281BD0706800F00C00082850
:1009900002D17068C00313D46068002800F0688139
:1009A000B0F5A02F00F07C81B0F5803F00F07C8195
:1009B000306820F480303060306820F4802076E1A8
:1009C0003068800301D56068D0B32078800718D5DF
:1009D000706810F00C0F07D0706800F00C00082849
:1009E0006ED17068C0036BD43068800702D520696F
:1009F000012825D13068616920F0F80040EAC10083
:100A00003060207800071FD42078400732D4E56991
:100A100095B1706800F00C00082840F08F80012D1F
:100A20000ED07068216A00F480328A4208D1616A6F
:100A300000F47010884203D1002002B0BDE8F081BC
:100A4000012002B0BDE8F081A069002862D000203A
:100A5000C4F242200121C0F88014FFF7F9FD0546D9
:100A6000706A800700F18C80FFF7F2FD401B0228BE
:100A7000F6D92AE1F06910F0805808D1F06940F009
:100A80008050F061F06900F080500090009847F2CB
:100A90000007C4F200073868C00529D4386840F45C
:100AA00080703860FFF7D4FD054600BF3868C00588
:100AB0001ED4FFF7CDFD401B6428F7D905E100BF28
:100AC0002069002840F20000C4F2422000F0828039
:100AD00001210160FFF7BCFD054600BF30688007BB
:100AE0003FF588AFFFF7B4FD401B0228F6D9ECE0D4
:100AF000E068002800F08080052800F09780012839
:100B000000F09880306A20F001003062306A20F0F6
:100B1000040092E00020C4F242200021C0F88014BA
:100B2000FFF796FD054600BF706A80077FF56CAF42
:100B3000FFF78EFD401B0228F6D9C6E00027C4F25D
:100B4000422700203866FFF783FD022D05460BD1B2
:100B50003068800140F1BE80FFF77AFD401B02281B
:100B60004FF00300F4D968E7306880017FF564AF87
:100B7000FFF76EFD401B02284FF00300F4D95CE73D
:100B800040F22000C2F20000006844F6D351C1F2E6
:100B90006201A0FB0101480A019000BF00BF01985B
:100BA000411E002801913FF42FAF00BF0198411E64
:100BB000002801913FF428AF00BF0198411E002892
:100BC00001913FF421AF00BF0198411E002801911F
:100BD000E4D119E700210160FFF73AFD054600BFA7
:100BE000306880077FF50DAFFFF732FD401B02280C
:100BF0004FF00300F4D920E7306A20F001003062A2
:100C0000306A20F004003062FFF722FD054641F211
:100C1000883700BF306A800720D5FFF719FD401BD9
:100C2000B8424FF00300F5D907E700BF306A40F043
:100C300004003062306A40F001003062FFF708FDC6
:100C4000054641F2883700BF306A800706D4FFF7B7
:100C5000FFFC401BB842F7D937E000BFB8F1000FE6
:100C60007FF4D5AEF06920F08050F061CFE600BF90
:100C7000306820F480303060306820F480203060AC
:100C8000FFF7E6FC054600BF306880037FF59DAEA8
:100C9000FFF7DEFC401B64284FF00300F4D9CCE6DC
:100CA000306840F480203060306840F4803030603C
:100CB000FFF7CEFC054600BF306880033FF585AEE8
:100CC000FFF7C6FC401B6428F6D9032002B0BDE83C
:100CD000F08100BF206AB0F5803F05D17168A2683D
:100CE00021F40031114371607168626A21F474115A
:100CF00010430843706001203866FFF7A9FC0446E2
:100D0000306880013FF598AEFFF7A2FC001B022877
:100D10004FF00300F4D990E6411E0020B0EB116FB4
:100D20001CBF012070474EF21002CEF2000251604B
:100D30004EF62351CEF20001F0230B700721906094
:100D400011607047FEE700002DE9F04385B041F2E5
:100D50001800C4F20200016840F6000841F00401E6
:100D600001600168C4F2010801F0040101910199D8
:100D7000016808F5006641F008010160016801ADF5
:100D800001F00801019101990168012741F010016A
:100D9000016000684FF0000900F010000190019818
:100DA0004FF4005001900324304629460297CDF8B5
:100DB0000C900494FFF73CFB4FF4804001A981E8BC
:100DC0008102304629460494FFF732FB4FF400407D
:100DD00001A981E88102304629460494FFF728FBE7
:100DE00030464FF400410022FFF72CFC40462946D4
:100DF000CDE90177CDE90394FFF71AFB022001A9A1
:100E000081E88102404629460494FFF711FB042043
:100E100001A981E88102404629460494FFF708FBB6
:100E2000082001A981E88102404629460494FFF781
:100E3000FFFA332000F03AF8322000F037F828208B
:100E400000F034F8012000F031F80C2000F02EF80A
:100E5000062000F02BF805B0BDE8F08370B504461D
:100E6000007898B100F082F82046FFF7EDF90228EB
:100E700038BF70BD01260125A05D00F077F801356F
:100E80002046EEB2FFF7E0F9B042F5D870BD0000A1
:100E9000FEE70000FEE7000070470000704700001A
:100EA000FFF7DCBB70470000FEE7000070B541F2C1
:100EB0000004C4F20104054620464FF4005100220C
:100EC000FFF7C0FB40F20006C2F20006B0683188AE
:100ED000C5F30012FFF7B6FBF0687188C5F3401246
:100EE000FFF7B0FB3069B188C5F38012FFF7AAFBAA
:100EF0007069F188EA09FFF7A5FB20464FF48041AD
:100F00000122FFF79FFB0120FFF77EFA20464FF4F6
:100F100080410022FFF796FBB068318805F001029E
:100F2000FFF790FBF0687188C5F34002FFF78AFB7A
:100F30003069B188C5F38002FFF784FB7069F188DE
:100F4000C5F3C002FFF77EFB20464FF4804101222B
:100F5000FFF778FB0120FFF757FA20464FF4804156
:100F60000022BDE87040FFF76DBB000070B541F294
:100F70000004C4F20104054620464FF4005101224A
:100F8000FFF760FB40F20006C2F20006B06831884D
:100F9000C5F30012FFF756FBF0687188C5F34012E5
:100FA000FFF750FB3069B188C5F38012FFF74AFBA9
:100FB0007069F188EA09FFF745FB20464FF480414C
:100FC0000122FFF73FFB0120FFF71EFA20464FF4F6
:100FD00080410022FFF736FBB068318805F001023E
:100FE000FFF730FBF0687188C5F34002FFF72AFB7A
:100FF0003069B188C5F38002FFF724FB7069F1887E
:10100000C5F3C002FFF71EFB20464FF480410122CA
:10101000FFF718FB0120FFF7F7F920464FF4804156
:101020000022BDE87040FFF70DBB000090B0FFF755
:1010300023FBFFF789FE06AC201D2421FFF723F9CF
:101040000220069001200A9010200B9000262046D6
:101050000D96FFF787FC28B1EFF3108072B600BF42
:10106000FEE700BF0F2501A80021CDE90156CDE91B
:1010700003660596FFF796FB20B1EFF3108072B67A
:10108000FEE700BF41F21800C4F20200016840F61A
:10109000000441F0040101600068C4F2010400F0A2
:1010A00004000690069820460F2100220026FFF734
:1010B000C9FA0120CDE907060220099006A92046B9
:1010C0000695FFF7B5F902A42046FFF7C7FEFBE738
:1010D00048656C6C6F20576F726C640001020000F1
:1010E00000000000000001020304060708090203D3
:1010F0000405060708090A0B0C0D0E0F101000005E
:10110000201100080000002028000000280100082D
:10111000481100082800002068060000440100086B
:10112000010002000400080000080140000801401E
:10113000000801400008014001000000100000000C
:081140000024F400000000008F
:04000005080000ED02
:00000001FF
