:020000040800F2
:100000007804002001010008A9130008A1130008CA
:10001000A51300086D010008091400080000000085
:10002000000000000000000000000000B113000804
:100030004105000800000000AD130008B5130008DA
:100040001B0100081B0100081B0100081B01000820
:100050001B0100081B0100081B0100081B01000810
:100060001B0100081B0100081B0100081B01000800
:100070001B0100081B0100081B0100081B010008F0
:100080001B0100081B0100081B0100081B010008E0
:100090001B0100081B0100081B0100081B010008D0
:1000A0001B0100081B0100081B0100081B010008C0
:1000B0001B0100081B0100081B0100081B010008B0
:1000C0001B0100081B0100081B0100081B010008A0
:1000D0001B0100081B0100081B0100081B01000890
:1000E0001B0100081B0100081B010008DFF80CD0F1
:1000F00000F02AF8004800470D140008780400209A
:100100000648804706480047FEE7FEE7FEE7FEE7B1
:10011000FEE7FEE7FEE7FEE7FEE7FEE7B9130008AD
:10012000ED000008D2B201E000F8012B491EFBD21D
:1001300070470022F6E710B513460A4604461946F2
:10014000FFF7F0FF204610BD064C074D06E0E068C3
:1001500040F0010394E8070098471034AC42F6D30E
:10016000FFF7C8FF5015000870150008FEE70000F3
:100170002DE9F04182B0044608982160A07140F654
:100180000640C2F61400C4F807000820E0723220CE
:100190002271637100F0D6F9E07A3825002808BF93
:1001A00030252E1D012038278DF8046000F0CAF993
:1001B00001208DF805508DF8066000F0C3F9206825
:1001C00021794FF47A7801AA04238DF80750CDF8ED
:1001D000008000F095FBE07A3826002808BF302622
:1001E000351D01208DF8045000F0ACF901208DF888
:1001F00005608DF8065000F0A5F92068217901AA64
:1002000004238DF80760CDF8008000F079FB05200D
:1002100000F098F9E07A2825002808BF302707F178
:10022000040008BF20258DF804000120282600F0D6
:1002300089F9281D8DF8060001208DF8057000F061
:1002400081F92068217901AA04238DF80750CDF89F
:10025000008000F055FB052000F074F9E07A2825B5
:10026000002818BF012008BF2025C700281D8DF8D1
:100270000400012000F066F9381D8DF80600012009
:100280008DF8055000F05EF92068217901AA042359
:100290008DF80770CDF8008000F032FB052000F0EB
:1002A00051F9E079E27A010120F00F0501F1080728
:1002B000002A14BF08350701281D8DF8040001200D
:1002C00000F040F9381D8DF8060001208DF805502A
:1002D00000F038F92068217901AA04238DF807700D
:1002E000CDF8008000F00CFB207AE27A010120F0CA
:1002F0000F0501F10807002A14BF08350701281D62
:100300008DF80400012000F01DF9381D8DF806005D
:1003100001208DF8055000F015F92068217901AA17
:1003200004238DF80770CDF8008000F0E9FA607AB8
:10033000E27A010120F00F0501F10807002A14BF3D
:1003400008350701281D8DF80400012000F0FAF897
:10035000381D8DF8060001208DF8055000F0F2F8E8
:100360002068217901AA04238DF80770CDF8008058
:1003700000F0C6FAA07AE27A010120F00F0501F13F
:100380000807002A14BF08350701281D8DF804004E
:10039000012000F0D7F8381D8DF8060001208DF8F7
:1003A000055000F0CFF82068217901AA04238DF8C8
:1003B0000770CDF8008000F0A3FAE07A1827002833
:1003C00018BF01204FEAC00505F1040008BF10273F
:1003D0008DF80400012000F0B5F8381D8DF80600F6
:1003E00001208DF8055000F0ADF82068217901AAB0
:1003F00004238DF80770CDF8008000F081FAE07AD0
:1004000000280CBF20260120C500281D8DF80400FF
:10041000012000F097F8301D8DF8060001208DF8BE
:10042000055000F08FF82068217901AA04238DF887
:100430000760CDF8008000F063FA02B0BDE8F081FB
:1004400070B582B004464079A379884298BF411EB6
:10045000934298BF5A1ED0B2032805D8DFE800F0B7
:1004600009020608403104E0002102E0143100E0F6
:1004700054310A01E37A01F0700002F108056FF0CF
:100480007702002B08BF6FF07F0202EB000606F137
:10049000040008BF0D018DF80400012000F052F89F
:1004A000281D8DF8060001208DF8056000F04AF83F
:1004B000206821794FF47A7601AA04238DF8075039
:1004C000009600F01DFA02B070BD00002DE9F04763
:1004D00082B00A788AB382464E1E4FF47A780DF1C4
:1004E000040900BF11019AF80B3022F00F0001F14E
:1004F0000807002B14BF08301701451C05308DF884
:10050000040001207C1C00F01DF8781D8DF8060009
:1005100001208DF8055000F015F8DAF800009AF87F
:1005200004104A4604238DF80740CDF8008000F0FF
:10053000E7F9B2780136002AD4D102B0BDE8F087DD
:1005400070470000B0B5044600F010F9054640F2CF
:100550000400C2F200000078611C18BF044400BF10
:1005600000F004F9401BA042FAD3B0BD2DE9F04FD2
:1005700082B041F20042C4F201020E6804239042AC
:1005800008BF0323002E009300F0EC8040F20C4ED5
:1005900040F2004CC4F2010E0022C4F2010C01240E
:1005A0004FF0000A4FF000093FE0012502F00C0473
:1005B0000F27A7402BEA070705FA04F43C4343F84A
:1005C00026404E68F303DCF8003054BF23EA0803EA
:1005D00043EA0803CCF80030DCF80430B40354BF1D
:1005E00023EA080343EA0803CCF80430F402DCF8F9
:1005F000083054BF23EA080343EA0803B402CCF8E6
:100600000830DEF800304FF0010454BF23EA08033D
:1006100043EA0803CEF800300E680AF1010A36FA00
:100620000AF302F1040200F09D8004FA0AFB16EAC4
:100630000B08F1D04B684FF6FF75C1F21005AB42C5
:1006400010DC122B50D8DFE803F0330A41454F4F3E
:100650004F4F4F4F4F4F4F4F4F4F4F484C00D1F8D8
:100660000C9041E04FF6FF75C1F22105AB420FDC63
:100670000025C1F21105AB421AD00025C1F21205C6
:10068000AB4215D00025C1F22105AB4210D02BE0C2
:100690000025C1F22205AB420AD00025C1F2310586
:1006A000AB4205D00025C1F23205AB421CD100BFE0
:1006B0008B6843B1012B14BFC0F814B0C0F810B060
:1006C0004FF0080910E04FF004090DE0CB6803F18A
:1006D000080909E04FF0000906E0CB6803F10409BE
:1006E00002E0CB6803F10C0913460546B8F5807F9C
:1006F00024BF203B04352E680F279F40BE4309FAD4
:1007000003F333432B60CB79DB067FF585AF41F2F2
:100710001804C4F2020423684FEA9A0643F0010366
:100720002360236840F6000403F001030193019B5A
:10073000ACF57E7353F826B0C4F20104A0420FD08A
:1007400040F60044C4F20104A0423FF42EAF41F24F
:100750000004C4F20104009DA04208BF022525E761
:10076000002523E702B0BDE8F08F000040F27000E2
:10077000C2F2000000687047F0B581B070B3044663
:1007800090F83D0028B9002084F83C00204600F095
:1007900081FA242084F83D002068016821F00101DD
:1007A000016000F03BFC48F28041C0F21E0140F6BF
:1007B0000012656888424FF00001C0F23D0248F225
:1007C000A16C4FF0000338BF01219042C0F2010C30
:1007D00038BF0123654538BF0B4613B1012001B076
:1007E000F0BD4DF68361C4F21B31A0FB01122168FC
:1007F0004FEA924E4B684FF4967623F03F0343EA5C
:1008000092434B6044F6D3530F6A0EFB06F6C1F2D7
:100810006203A6FB033627F03F03B709654538BFDF
:10082000970C7A1C1A430A62CA6948F2A0674CF610
:10083000FF73C0F20107BD4222EA030C0AD8013857
:100840006A00B0FBF2F001306FF31F30042898BF4C
:1008500004202BE0A368A0F1010E9BB1192068438E
:10086000BEFBF0F00422013062F31F30000512D00D
:100870009BB119206843BEFBF0F00422013062F303
:100880001F3011E005EB4500BEFBF0F001306FF3C7
:100890001F300005ECD1012008E005EB4500BEFB50
:1008A000F0F001306FF31F3040F4004040EA0C00DC
:1008B000C8610868D4E9072320F0C000104318433A
:1008C0000860886848F2FF3204F10C0790438CCF2F
:1008D00018431043A6698860C86820F0FF003843B9
:1008E0003043C860086840F0010008600020202103
:1008F000206484F83D10206384F83E0001B0F0BD10
:100900002DE9F04782B09A46164688460446FFF71E
:100910002DFF94F83D10202921D1DDF828900546BF
:100920002068806910F0020713D0FFF71FFF401BFB
:100930001A28F5D300202021206384F83D1084F884
:100940003E00216C002F41F02001216484F83C001E
:1009500066D194F83C00012806D1022600E0022668
:10096000304602B0BDE8F0870121206884F83C10D1
:100970000168C90703D1016841F001010160016804
:1009800021F400610160212184F83D10102184F8D8
:100990003E10002121646662A4F82AA0618D2185A1
:1009A0000021CFF6FF71E162E16A11F5803F18BFC7
:1009B00001296DD1016841F480710160406910F036
:1009C000010027D180F0010609F1010707E000BF0F
:1009D0002068406910F0010080F001061AD1002F54
:1009E000F6D0FFF7C3FEB9F1000F02D0401B484517
:1009F000EED900202021206384F83D1084F83E00C9
:100A0000216C41F020012164F10784F83C0001D001
:100A10000126A5E72069B0F5804F03D1FE2140E013
:100A200002269DE7062000EAD8112068F031016116
:100A30004169090734D44169490513D409F1010614
:100A40004EB1FFF793FEB9F1000F00F01381401B88
:100A5000484500F20F8120684169090720D44169A7
:100A60004905EDD50168012641F4007101606FF47C
:100A70008061416100202021206384F83D1084F8CA
:100A80003E00216C41F00401216484F83C0067E7DA
:100A900008293FF48FAF216B12293FF48BAF8DE70C
:100AA000FF21206801EA08010161416989072DD40D
:100AB0004169490514D409F1010600BF4EB1FFF7A1
:100AC00055FEB9F1000F00F0C680401B484500F20A
:100AD000C28020684169890718D441694905EDD56C
:100AE0000168012641F4007101606FF48061416189
:100AF00000202021206384F83D1084F83E00216C02
:100B000041F00401216484F83C0029E700260196A5
:100B1000206841690191806901900198208D002829
:100B200054D009F1010700BF206850F8141F0906CE
:100B30000FD40168490556D4002FF5D0FFF716FEF3
:100B4000B9F1000F4FF0200151D0401B4845EBD9BF
:100B50004DE0D4F824E02268704610F8013B1361A0
:100B60006062608D01386085B4F828C01046ACF131
:100B70000103238550F8141F49070DD519040BD024
:100B80009EF8011011610EF102016162618D01395F
:100B90006185ACF102012185016802E0206850F80E
:100BA000141F49070FD40168490538D4002FF5D028
:100BB000FFF7DCFDB9F1000F4FF0200133D0401BEF
:100BC0004845EBD92FE0208D0028ADD12068016881
:100BD00041F400710160202084F83D0084F83E60FB
:100BE00084F83C60BCE66FF4806101600421002061
:100BF0002022206384F83D2084F83E00226C1143BB
:100C0000216484F83C00206C042806D12068012669
:100C1000016841F400710160A2E60126A0E66FF4CC
:100C200080610160042100202022206384F83D209F
:100C300084F83E00226C1143216484F83C00206C4F
:100C4000042806D120680126016841F40071016082
:100C500086E6012684E600202021206384F83D10EA
:100C600084F83E00216C012641F02001216484F8C3
:100C70003C0075E600202021206384F83D1084F8B4
:100C80003E00216C012641F02001216484F83C00E3
:100C900066E6000010B586B0006845F20042C4F276
:100CA000000200219042049102D006B010BD00BFA6
:100CB00041F21804C4F20204206802A940F00800BE
:100CC0002060206800F00800019001984FF4407007
:100CD0000290122003900320059040F60040C4F2D9
:100CE0000100FFF743FC0420C4F20100016841F059
:100CF000E06141F002010160606840F40010606052
:100D0000606800F400100190019806B010BD00006A
:100D100040F2040040F27001C2F20000C2F2000191
:100D200000780A68104408607047000080B542F2FD
:100D30000000C4F20200016841F0100101600320CC
:100D400000F07EF8002000F005F800F02BF80020FD
:100D500080BD0000B0B540F20402C2F2000240F2D1
:100D600000011278C2F200014FF47A730968B3FBF4
:100D7000F2F20446B1FBF2F1084600F0FBFA0F2C48
:100D80004FF001050CD858B94FF0FF302146002232
:100D9000002500F029F840F20800C2F200000460CB
:100DA0002846B0BD82B041F21800C4F202000168CA
:100DB000022241F001010160016801F0010101918D
:100DC0000199416841F080514160406800F08050D5
:100DD000009000980420C4F20100016862F31A61D7
:100DE000016002B07047000010B54EF60C5CCEF208
:100DF000000CDCF80030C3F3022E8EF00704042C44
:100E000028BF0424BEF103034FF0FF3E0EFA04F4A2
:100E100038BF0023A14399400EFA03F39A4300F030
:100E20000F03043B1143634409010C3300F160429A
:100E3000B0F1FF3FC8BF02F56443197010BD000058
:100E40004EF60C51CEF200010A684FF6FF031A402D
:100E500060F30A2242F0806040F0FD700860704745
:100E60002DE9F04381B0002800F0858042F20008AF
:100E7000C4F202080446D8F800000D4600F007004E
:100E800088420CD2D8F8000020F007002843C8F8A8
:100E90000000D8F8000000F00700A8426BD12068DD
:100EA00041F204098107C4F2020917D5410705D5AB
:100EB000D9F8001041F4E061C9F80010010705D528
:100EC000D9F8001041F46051C9F80010D9F80010A9
:100ED000A26821F0F0011143C9F80010C00741D108
:100EE000D8F8000000F00700A8420CD9D8F800009C
:100EF00020F007002843C8F80000D8F8000000F0F0
:100F00000700A84237D12068410707D5D9F800105B
:100F1000E26821F4E0611143C9F80010000708D528
:100F2000D9F80000216920F4605040EAC100C9F8F6
:100F30000000D9F8002002F00C00082841F200203F
:100F4000C0F27A004ED141F24053C2F38341C0F661
:100F50000003595CD20339D440F60010C0F23D00C2
:100F600048433FE06068022809D0012829D159F898
:100F7000041C890307D4012001B0BDE8F08359F8AF
:100F8000041C8901F7D5D9F8001021F003010843AA
:100F9000C9F80000FFF7EAFB064641F2883700BFB8
:100FA000D9F80000616800F00C00B0EB810F97D019
:100FB000FFF7DCFB801BB842F2D9032001B0BDE88B
:100FC000F08359F8041C8907D5D5DCE7D9F800204F
:100FD00041F22653C2F34042C0F600039A5C4843F4
:100FE000B0FBF2F0D9F8001041F22852C1F303111E
:100FF000C0F60002515C40F2000220FA01F140F21A
:101000000800C2F200000068C2F200021160FFF79F
:10101000A1FE002001B0BDE8F083000040F2000016
:1010200041F20401C2F20000C4F202010068096842
:1010300041F23852C1F30221C0F60002515CC840AF
:10104000704700002DE9F04182B0002800F0D78001
:101050000446007841F20006C007C4F2020644D0FC
:10106000706800F00C00042817D0706800F00C00C5
:10107000082802D17068C0030FD465682DB1B5F59A
:10108000A02F10D0B5F5803F11D0306820F480300B
:101090003060306820F480200CE03068800324D574
:1010A000606810BBABE0306840F48020306030688E
:1010B00040F480303060FFF759FB002D054611D019
:1010C0003068800311D4FFF751FB401B6428F7D927
:1010D00016E100BFFFF74AFB401B64284FF00300F6
:1010E00000F28A8030688003F4D42078800718D515
:1010F000706810F00C0F07D0706800F00C00082822
:1011000027D17068C00324D43068800702D52069D5
:10111000012874D13068616920F0F80040EAC1000C
:101120003060207800074FD5A06940B30020C4F29A
:1011300042200121C0F88014FFF718FB054600BFCC
:10114000706A80072DD4FFF711FB401B0228F7D9E6
:10115000D6E02069002840F20000C4F2422000F0EE
:10116000A68001210160FFF701FB0546306880077A
:10117000D0D4FFF7FBFA401B0228F7D9C0E00020CB
:10118000C4F242200021C0F88014FFF7EFFA0546B0
:10119000706A800718D5FFF7E9FA401B0228F7D9D3
:1011A000AEE040F20000C2F20000006844F6D35105
:1011B000C1F26201A0FB0101480A019000BF019841
:1011C000411E00280191F9D1207840071BD4E56920
:1011D0008DB1706800F00C00082846D1012D0ED0AA
:1011E0007068216A00F480328A4208D1616A00F492
:1011F0007010884203D1002002B0BDE8F0810120C8
:1012000002B0BDE8F081F06910F0805808D1F069B3
:1012100040F08050F061F06900F08050009000983C
:1012200047F20007C4F200073868C0050FD43868D9
:1012300040F480703860FFF799FA05463868C005B9
:1012400005D4FFF793FA401B6428F7D958E0E56806
:101250001DB1052D3CD0012D3ED0306A20F001009B
:101260003062306A20F0040039E00027C4F24227DF
:1012700000203866FFF77AFA022D05460CD100BF30
:101280003068800154D5FFF771FA401B02284FF0F7
:101290000300F5D9B0E700BF30688001ABD5FFF798
:1012A00065FA401B02284FF00300F5D9A4E700219E
:1012B0000160FFF75BFA0546306880077FF531AFC4
:1012C000FFF754FA401B02284FF00300F4D993E7CC
:1012D000306A40F004003062306A40F00100306251
:1012E000FFF744FA002D054641F2883714D000BFBD
:1012F000306A800713D4FFF739FA401BB842F7D998
:10130000032002B0BDE8F081FFF730FA401BB8427D
:101310004FF003003FF670AF306A8007F4D4B8F1A5
:10132000000F7FF454AFF06920F08050F0614EE779
:10133000206AB0F5803F05D17168A26821F40031C0
:10134000114371607168626A21F47411104308439B
:10135000706001203866FFF709FA044630688001A2
:101360003FF549AFFFF702FA001B02284FF00300D8
:10137000F4D941E7411E0020B0EB116F1CBF0120E2
:1013800070474EF21002CEF2000251604EF6235129
:10139000CEF20001F0230B700721906011607047BE
:1013A000FEE70000FEE70000704700007047000005
:1013B00070470000FFF7ACBC41F20000C4F202002D
:1013C0000168002241F0010101604168CFF6FF028F
:1013D0001140416001684FF6FF72CFF6F66211408E
:1013E0000160016821F480210160416821F4FE015F
:1013F00041604FF41F0181604EF60850CEF20000AC
:101400004FF0006101607047FEE7000090B0FFF709
:101410008DFC06AC201D2421FEF78BFE02200690D9
:1014200001200A9010200B90002620460D96FFF711
:1014300009FE0F20CDE9010601A80021CDE90366D0
:101440000596FFF70DFD41F21800C4F20200016895
:1014500040F2100441F0040101600168C2F200048E
:1014600001F00401069106990168254641F0080142
:10147000016000684FF4804100F008000690069873
:1014800045F20040C4F2000045F80C0F48F2A0609D
:10149000C0F20100C4E904062846C4E90661C4E9B3
:1014A0000866C4E90A66FFF767F90426204629465C
:1014B0007E2214230096FEF75BFE204600210022C8
:1014C000FEF7BEFF07A12046FFF700F820460021E7
:1014D0000122FEF7B5FF08A12046FEF7F7FF00BF87
:1014E000FEE700BF4B687565204E677579656E2015
:1014F00043726561746F720048656C6C6F20616E39
:101500006820656D2021000002E008C8121F08C194
:10151000002AFAD170477047002001E001C1121F74
:10152000002AFBD17047010200000000000000000B
:101530000102030406070809000000000102030479
:1015400002030405060708090A0B0C0D0E0F101004
:1015500070150008000000201000000008150008A9
:10156000801500081000002068040000181500080D
:101570000024F40001000000100000000000000042
:04000005080000ED02
:00000001FF
