:020000040800F2
:10000000280D0020B90100088D2100088521000875
:1000100089210008990E00088522000800000000D0
:10002000000000000000000000000000C5210008E2
:10003000011000080000000091210008C9210008FB
:10004000D3010008D3010008D3010008D301000840
:10005000D3010008D3010008D3010008D301000830
:10006000D3010008D3010008D3010008D301000820
:10007000D3010008D3010008D3010008D301000810
:10008000D3010008D3010008D3010008D301000800
:10009000D3010008D3010008D3010008D3010008F0
:1000A000D3010008D3010008D3010008D3010008E0
:1000B000D3010008D3010008D3010008D3010008D0
:1000C000D3010008D3010008D3010008D3010008C0
:1000D000D3010008F5210008D3010008D30100086E
:1000E000D3010008D3010008D301000800F002F892
:1000F00000F053F80AA090E8000C82448344AAF16F
:100100000107DA4501D100F048F8AFF2090EBAE86C
:100110000F0013F0010F18BFFB1A43F0010318473B
:100120000857000028570000103A24BF78C878C14B
:10013000FAD8520724BF30C830C144BF04680C60ED
:10014000704700000023002400250026103A28BF35
:1001500078C1FBD8520728BF30C148BF0B60704739
:10016000662905F01382642900F0AA80632900F053
:100170007284002070471FB500F0BEFC0400002010
:10018000002104F0C7FB401C60600020002104F047
:10019000ABFBE0601FBD10B510BD00F0F9FD1146CE
:1001A000FFF7E9FF03F048F800F025FE03B4FFF77E
:1001B000F2FF03BC00F068FE094880470948004789
:1001C000FEE7FEE7FEE7FEE7FEE7FEE7FEE7FEE707
:1001D000FEE7FEE704480549054A064B7047000064
:1001E000F1210008ED00000828070020280D00205C
:1001F00028090020280900200FB41CB5074B06AAC7
:100200007B4469460090059800F003FC0020694695
:1002100000F012FC1CBC5DF814FB00003508000067
:1002200070B5044685690068C10601D5302600E036
:100230002026C00707D070BDD4E901213046904781
:10024000206A401C20626D1EF6D570BD70B5044654
:1002500085690078C00707D170BDD4E9012120204D
:100260009047206A401C20626D1EF6D570BD70B5A7
:100270000C460546012A05D02878800600D5EA6993
:10028000002302E0012305E05B1C934202D2E05C04
:100290000028F9D1A869E618C01AA861286A18448C
:1002A00028622846FFF7BCFF04E0D5E9012114F8D5
:1002B000010B9047B442F8D32846FFF7C7FF70BD43
:1002C0002DE9F0410646002410687529314616A52F
:1002D00010D0AFF30080002802DA404213A507E0F7
:1002E00031688A0701D512A502E0490704D511A596
:1002F000012401E0AFF3008000210A2206F1240767
:1003000009E0B0FBF2FCB0FBF2F302FB1C00303062
:1003100078541846491C0028F3D123462A46304613
:10032000BDE8F04100F009B9000000002D00000018
:100330002B000000200000002DE9F05F89460446F4
:100340004FF0000ADFF824B1FB44C0F820A020469B
:10035000E168884700287DD0252806D0D4E901210E
:100360009047206A401C2062F1E700255F46204646
:10037000E16888472028064607DB312E05D2B819E8
:1003800010F8200C08B10543F1E7A80701D525F0C6
:100390000405C4F81CA00027C4F818A02A2E09D010
:1003A000304603F07DFD38B304EB8708303EC8F8D3
:1003B000186019E059F8041B204604EB870291618C
:1003C000E1688847012F064618D1E069002820DA45
:1003D00025F020051DE0D8F8180000EB800006EBA2
:1003E00040003038C8F818002046E16888470646C3
:1003F00003F056FD0028EED1012F0AD02E2E08D191
:100400002046E16888477F1C0646022F45F02005FC
:10041000C4DBA069002803DA404245F00105A06171
:10042000E80701D025F01005A6B1A6F14100192872
:1004300002D8203645F400654A46314620462560FC
:100440004D46FFF78DFE60B1012807D0ED1D25F068
:10045000070000E007E000F1080978E705F104096A
:1004600075E730467AE7206ABDE8F09F3453000014
:1004700070B5064600F052F80468054630460A2278
:10048000002100F0F4FA2C6070BD10B5431C02E0AE
:1004900010F8011B71B18107FAD14FF0013202C887
:1004A0008C1A8C4314EAC211F9D0C01A0A0603D080
:1004B000C01E10BDC01A10BD0A0401D0801E10BDA0
:1004C0000902FCD0401E10BD4FF0000200B51346DB
:1004D00094469646203922BFA0E80C50A0E80C5064
:1004E000B1F12001BFF4F7AF090728BFA0E80C5015
:1004F00048BF0CC05DF804EB890028BF40F8042B0E
:1005000008BF704748BF20F8022B11F0804F18BF7A
:1005100000F8012B704770477047704700487047DC
:100520001800002010B5FFF7F9FF006810BD10B5E6
:100530000446FFF7F3FF046010BD2DE9F0470D46B8
:1005400099469246044600F124080168880604D5BD
:10055000E06921F01001216000E00120A84201DDE6
:10056000471B00E00027A1697A1902EB0900081A6D
:10057000A0612078C00602D42046FFF751FE002675
:1005800008E0D4E901211AF806009047206A401CCF
:10059000761C20624E45F4DB2078C0060AD5204642
:1005A000FFF73EFE06E0D4E9012130209047206AA3
:1005B000401C2062381EA7F10107F4DC07E0D4E9F3
:1005C000012118F805009047206A401C2062281E6F
:1005D000A5F10105F3DC2046FFF738FE2078000680
:1005E00002D50220BDE8F0870120FBE72DE9FF4F8F
:1005F0000C461E464FF0FF378BB0D2E90001DDF804
:1006000060800A908A46C1F30A5505B93D4600212B
:1006100008464FF00000BAF1000F00F4400005DA80
:1006200000EB80004FF4400101EA50004FEA90597E
:10063000B9F1010F00DDB9460A9850EA4A000ED020
:1006400044F61050A5F2FF3545432F14B8F1000FC2
:100650001ED07542291E1EDDC9F100021CE0B8F152
:10066000010F4FF0000001D0302103E0F24305E01C
:100670002154401CB042FBDB3046002200212154B3
:100680000B99C1F80880C1E900200FB0BDE8F08FD8
:10069000BD1B6D1CDEE74A4600DA694206A800F081
:1006A00005FB06AB93E8070003AB83E80700504661
:1006B0000A9902F0A3FF8DE80700A0F500501F384B
:1006C00000900398002D0ADD42F21F014A460844BB
:1006D000002303A90390684603F00CFA09E0A0F593
:1006E00000504A461F38002303A90390684603F0D0
:1006F00016FA8DE807000004000C03D04FF0FF301D
:10070000410800E01046B8F1000F03D0002200922B
:1007100015461EE0751E05D400F0F2F93032625520
:100720006D1EF9D5B3460122084302D000227F1C7A
:1007300004E02078302801D100227F1E002A09978A
:1007400084D01DE0112D07DA00F0DAF9303262555D
:100750006D1C50EA0102F5D1084302D00098C8B1DF
:100760000EE00021681E05E0235C625C63542254A5
:10077000401E491C8142F7DBAB46A81B401E099076
:10078000002004F80B000B98099AC0F80880C0E913
:10079000002B7AE711264FF0000857E72DE9F04FBC
:1007A00088460446D21D22F0070191B0D1E900012C
:1007B000CDE90A0103F0EAFA02460B98C00F01D016
:1007C0002D2007E02068810701D52B2002E02021A1
:1007D00001EAC000032A099001D0072A05DB03467D
:1007E0004146204600F0D2F90BE12078800601D581
:1007F000E06900E00620B8F1650F814606D0B8F147
:10080000660F18D0B8F1670F70D131E00020B9F150
:10081000110F009001DB112301E009F101030AAA85
:1008200001A90CA8FFF7E2FEDDE90C70002609F132
:100830000105834647E001204B4600904FF00047FA
:100840000AAA01A90CA8FFF7D1FEDDE90DB00C99A9
:100850005D46002610B909F101000D18B9EB05003D
:1008600003D4C0F1FF3609F10105A5EB09002BE027
:10087000B9F1010F01DA4FF001090020B9F1110FB0
:100880000090484601DD112300E003460AAA01A9B1
:100890000CA8FFF7ABFEDDE90C704D460026834641
:1008A000207800070AD4AB4500DA5D4601A8012D87
:1008B00004DD411911F8011C302907D04F4502DA37
:1008C00017F1040F04DA012082460FE06D1EEEE7F7
:1008D000002F02DCED1B3E4403E0781CA84200DD43
:1008E0007D1CB81B00F1010A4FF00047207800077B
:1008F00003D4AA4501DB4FF0FF3A0021B7F1004FC6
:100900000DF143088DF8431024D002202B23002F33
:1009100001DA7F422D230A21021EA0F1010000DC32
:100920005FB197FBF1FC97FBF1F201FB1C7C1746D2
:100930000CF1300C08F801CDEEE7A8F101000370CE
:100940002188090501D5452100E06521A0F10108B4
:1009500000F8011C09980FA9A1EB0807FF1D00B1C1
:100960000120411901EBEA70A1693844081A401EC0
:10097000A0612078C00602D42046FFF751FC0998F8
:1009800028B1D4E901219047206A401C20622078D8
:10099000C00622D52046FFF743FC1EE0002E04DBF4
:1009A000B34502DD01A8805D00E03020D4E90121DB
:1009B0009047206A401C2062761CAAF101005FEA81
:1009C000000A0AD100F098F8C0680168405CD4E9D8
:1009D00001219047206A401C2062281EA5F10105D4
:1009E000DCDC07E0D4E9012118F8010B9047206A0C
:1009F000401C2062381EA7F10107F3DC2046FFF7F8
:100A000025FC032011B041E601694A1C0261087807
:100A1000704700B58FB0CDE901310021059105493E
:100A20007944CDE9031011466846FFF785FC0FB005
:100A300000BD0000E5FFFFFF0A6802F8010B0A6035
:100A4000704710B5436913B1AFF3008001E0FFF7C1
:100A50000EFC012010BD127800F124010A70002262
:100A60004A700122EDE711684FF0FF32E9E72DE906
:100A7000F04791460F4680460446002614F8015B75
:100A80002DB100F031F80068405DC007F6D12B2D84
:100A900002D02D2D18D0641E4A463946204600F05B
:100AA000B5F827B13968A14201D1C7F800804FF0ED
:100AB000020471050BD54042002803DDFFF72EFD2F
:100AC0000460A007BDE8F08746F48066E4E70028EC
:100AD000F8DAFFF723FD04606FF00040F2E7000052
:100AE000004870471800002010B500F005F8001D00
:100AF00010BD00BF213E00000048704738000020B4
:100B000030B5B0F10A0271F100034FEA900E4EEADF
:100B1000817EB0EB0E0061EB91014FEA101E4EEAB0
:100B2000017E10EB0E0041EB11114FEA102E4EEA40
:100B3000016E10EB0E0041EB11214FEA104E4EEA10
:100B4000014E10EB0E0041EB1141401841F1000144
:100B50004FEAD00040EA41704FEAD1014FEA8104E8
:100B600044EA907410EB800544EB01046D1944EBEA
:100B70000404521BA3414FF0000348BF0A3200D5C2
:100B800030BD401C41F1000130BD00002DE9F041B5
:100B90001F46044603260168072A01F4006004DBAF
:100BA00008B116A505E016A503E008B115A500E0FB
:100BB00015A521F010002060A069C01EA0610FB132
:100BC000401EA0612046FFF72BFB4FB1D4E9012165
:100BD00038469047206A401C2062C01C206206E014
:100BE000206AFAE7D4E9012115F8010B9047761E37
:100BF000F8D22046FFF72AFBBDE8F0814E414E00B7
:100C00006E616E00494E4600696E66002DE9F05F28
:100C1000824615468B4600270AF10104B946007842
:100C2000302801D09DB113E014F8010B012778287A
:100C300003D0582801D045B10AE00DB1102D07D1DD
:100C4000002714F8010B102502E0082500E00A2512
:100C50000026B0460EE005FB080005FB06F1012763
:100C60001FFA80F801EB1046B6F5803F00D3B94675
:100C700014F8010B294600F0B0F80028EBDABBF1BC
:100C8000000F05D00FB1641E00E05446CBF80040C1
:100C9000B9F1000F06D0FFF741FC02210160C81E28
:100CA000BDE8F09F48EA0640FAE700002DE9F0476A
:100CB000814616468AB0354878440DC88DE80D0047
:100CC00032487844801C03AC0DC884E80D0041F61E
:100CD0009B300844372190FBF1F290FBF1F5A5F130
:100CE000800501FB12041B3C02D56442012000E098
:100CF0000020DFF898A080460027FA44AAF1BE0A37
:100D00000EE0E0070AD03246684607EB47010123B0
:100D10000AEB810102F003FF8DE8070064107F1CDD
:100D2000002CEED1194F7F44AE3F19E0E80715D0F3
:100D300007EB04100DF1180A90E80E008AE80E0087
:100D4000C068F04201D1981908903246012306A9E3
:100D500003A802F0E4FE03AB83E807006D10641CF7
:100D6000002DE3D14FF0010332466946B8F1000F80
:100D700003A802D002F0BEFE01E002F0D0FEC9E9F5
:100D80000001C9F808200AB0BDE8F087E84A000071
:100D90007546FFF7A5FEAE4605006946534620F0AE
:100DA0000700854618B020B5FFF714FABDE82040CB
:100DB0004FF000064FF000074FF000084FF0000B17
:100DC000AC46ACE8C009ACE8C009ACE8C009ACE886
:100DD000C00921F007018D4670473A2800D230380B
:100DE00020F02002412A01D3A2F13700884201D32A
:100DF0004FF0FF30704710B50446AFF30080204637
:100E0000BDE81040FFF7D2B94FF0013C50F8042B79
:100E100051F8043B9A4221D1A2EB0C03934313EA0D
:100E2000CC1317D150F8042B51F8043B9A4215D13A
:100E3000A2EB0C03934313EACC130BD150F8042B11
:100E400051F8043B9A4209D1A2EB0C03934313EAF5
:100E5000CC13DBD04FF00000704700BFD01A01BAAE
:100E6000B1FA81F101F0180122FA01F0CB40DBB2B6
:100E7000C0B2C01AC1F120012CFA01F3D11A91437A
:100E800011EAC311E6D1704701491820ABBEFEE755
:100E90002600020070470000FEE700002DE9F04147
:100EA0000C468046FFF7F1FA40F2E00EC2F2000E67
:100EB000DEF8043000224FF4FA7C00E00132D3F86F
:100EC0000012D3F80462B14264D0D3F8041298F847
:100ED0000060595CB1425DD1D3F80062D3F804726E
:100EE000BE4200F08580D3F804629E5D8E4240F0E1
:100EF0007F8003F501760021D3F80052D3F8047205
:100F0000BD4205D1FF2301318142A3540BD173E0CF
:100F100035685B5D356801356FF35F2535600131FC
:100F20008142A35468D0DEF80430013203F5017623
:100F3000AEF800C0D3F80052D3F80472ED1BED05F3
:100F400016D1D3F80052D3F80472ED1BED0501BFA2
:100F5000D3F80052D3F80472ED1B5FEAC55507D1F0
:100F6000D3F80052D3F80472ED1BED05E2D000BFB8
:100F7000D3F80072D3F80452AF4207D018F80150EA
:100F8000D3F80472DF5DAF42B6D000BF814296D184
:100F900032E000BFD3F80412595CA154DEF80430EB
:100FA000D3F8041201316FF35F21C3F80412D3F8B0
:100FB0000012D3F80462891BC9057FF47FAFD3F810
:100FC0000012D3F80462891BC90501BFD3F80012CF
:100FD000D3F80462891B5FEAC1517FF46FAFD3F885
:100FE0000012D3F80462891BC905E0D066E700BF90
:100FF000002181427FF463AF0120BDE8F081000051
:1010000070470000B0B5044600F01AF9054640F2FA
:101010000000C2F200000078611C18BF044400BF49
:1010200000F00EF9401BA042FAD3B0BD2DE9F04FFD
:1010300082B041F20042C4F201020E6804239042E1
:1010400008BF0323002E009300F0F68040F20C4E00
:101050004FF6FF7CC4F2010E00220124C1F2100CF5
:101060004FF0000A4FF0000943E000BF012502F0F5
:101070000C040F27A7402BEA070705FA04F43C43AA
:1010800043F82640D1F804B040F20045C4F201050F
:101090005FEACB332B6854BF23EA080343EA080313
:1010A0002B606B685FEA8B3454BF23EA080343EA82
:1010B00008036B605FEACB24AB6854BF23EA0803E4
:1010C00043EA08035FEA8B24AB60DEF800304FF0A0
:1010D000010454BF23EA080343EA0803CEF80030B2
:1010E0000E680AF1010A36FA0AF302F1040200F06E
:1010F000A38004FA0AF816EA080FF1D04B6863459A
:1011000012DC122B56D8DFE803F0350B4549555554
:1011100055555555555555555555554D510000BFCB
:10112000D1F80C9046E000BF4FF6FF77C1F22107DF
:10113000BB420FDC0027C1F21107BB421AD00027C7
:10114000C1F21207BB4215D00027C1F22107BB42F2
:1011500010D02FE00027C1F22207BB420AD000279F
:10116000C1F23107BB4205D00027C1F23207BB42B2
:1011700020D100BF8B684BB1012B14BFC0F8148085
:10118000C0F810804FF0080914E000BF4FF00409C8
:1011900010E000BFCB6803F108090BE04FF0000935
:1011A00008E000BFCB6803F1040903E0CB6803F15A
:1011B0000C0900BF13460546BAF1080F24BF203BB7
:1011C00004352E680F279F40BE4309FA03F33343CB
:1011D0002B60CB79DB067FF583AF41F21804C4F2B4
:1011E000020423684FEA9A0643F001032360236850
:1011F00040F6000403F001030193019B40F2004319
:10120000C4F20103A3F57E7353F826B0C4F20104BF
:10121000A0420FD040F60044C4F20104A0423FF4C3
:1012200025AF41F20004C4F20104009DA04208BFB2
:1012300002251CE700251AE702B0BDE8F08F000088
:1012400040F22470C2F200000068704770B5B8B375
:10125000044690F83D0028B9002084F83C00204660
:1012600000F0ECFA242084F83D002068016821F0A9
:1012700001010160016841F400410160016821F44D
:101280000041016000F0ACFC48F28041C0F21E0158
:1012900040F60013D4F804E088424FF00001C0F299
:1012A0003D0348F2A16C4FF0000238BF0121984283
:1012B000C0F2010C38BF0122E64538BF0A460AB128
:1012C000012070BD4DF68361C4F21B31A0FB0112F9
:1012D0002168950C4B684FF4967623F03F0343EA60
:1012E0009243754344F6D3564B60C1F262060B6AD3
:1012F000A5FB0656B50923F03F03E64538BF950C1C
:101300006A1C1A430A62CA6948F2A0664CF6FF7367
:10131000C0F20106B64522EA03020BD801384FEAB3
:101320004E03B0FBF3F001306FF31F30042898BF79
:1013300004201EE0A368013863B119230EFB03F3F8
:10134000B0FBF3F001306FF31F3078B100F580404F
:1013500008E000BF0EEB4E03B0FBF3F001306FF37B
:101360001F3028B100F5004003E000BF012000E07D
:1013700001201043C8610868D4E9072320F0C000A9
:10138000104318430860886848F2FF3204F10C06E5
:1013900090434CCE18431043A5698860C86820F07C
:1013A000FF0030432843C860086840F0010008602F
:1013B00000202021206484F83D10206384F83E0042
:1013C00070BD00002DE9F04381B01F4616468846E7
:1013D0000446FFF735FF94F83D10202920D105463B
:1013E00020688169890717D5FFF72AFF401B192854
:1013F000F6D900202021206384F83D1084F83E00B7
:10140000216C022641F02001216484F83C00304622
:1014100001B0BDE8F08300BF94F83C10012905D16C
:101420000226304601B0BDE8F08300BF012184F8F8
:101430003C100168C90703D1016841F00101016056
:10144000016821F400610160212184F83D10102120
:1014500084F83E100021216466626785618D2185D4
:101460000021CFF6FF71E162E16A11F5803F18BFFC
:10147000012919D1016841F4807101604169DDF8E9
:101480002090C90723D119F1010116D0B9F1000F3D
:1014900046D000BFFFF7D4FE401B484542D8206825
:1014A0004169C907F6D012E00829E3D0216B12295F
:1014B000E0D0E3E74169C90709D14169C90706D10D
:1014C0004169C90704BF41695FEAC171F2D021696E
:1014D000B1F5804F02D1FE2161E000BF062101EA93
:1014E000D811F03101614169090757D4416919F1F7
:1014F000010201F480612FD0002946D1B9F1000F1B
:1015000000F04281FFF79CFE401B484500F23E81FF
:1015100020684169090741D441694905F2D534E0A1
:10152000FFF78EFE00202021206384F83D1084F810
:101530003E00216C012641F020012164216884F8DD
:101540003C000868C00544BF4FF40070206430467A
:1015500001B0BDE8F08300BFB9B9416909071DD4E6
:101560004169490511D44169090717D44169490501
:101570000BD44169090711D44169490505D4416972
:1015800009070BD441694905E7D5016841F40071A9
:1015900001606FF4806141610420F8E0FF2101EAFD
:1015A00008010161416989073AD4416919F10102D1
:1015B00001F4806112D051BBB9F1000F00F0E0805E
:1015C000FFF73EFE401B484500F2DC802068416981
:1015D000890725D441694905F2D518E0B9B94169AF
:1015E00089071DD44169490511D44169890717D478
:1015F000416949050BD44169890711D441694905FD
:1016000005D4416989070BD441694905E7D50168CB
:1016100041F4007101606FF4806141610420B6E023
:101620000026009641690091816900910099218D01
:10163000002900F0958009F10108014651F8142FA6
:10164000120635D4B8F1000F16D0B9F1000F00F032
:10165000AF8000BF0868400500F1B280FFF7F0FDE1
:10166000401B484500F2A9802068014651F8142F1C
:101670001206EFD51CE000BF0A68520500F1A080F9
:101680000A68120614D40A68520500F199800A68A3
:1016900012060DD40A68520500F192800A681206FB
:1016A00006D40A68520500F18B800A681206E3D559
:1016B000636A194611F8012B02616162618D01397B
:1016C0006185278D0146A7F1010CA4F828C051F8C7
:1016D000142F52070DD55FEA0C420AD05A78A7F1B1
:1016E000020C02619A1C6262628D013A6285A4F862
:1016F00028C00A6852072FD4B8F1000F14D0B9F1EE
:10170000000F7BD00868400500F18080FFF798FD4E
:10171000401B484577D82068014651F8142F5207DE
:10172000F0D5B4F828C017E00A6852056ED40A68EC
:10173000520711D40A68520568D40A6852070BD4BC
:101740000A68520562D40A68520705D40A6852052D
:101750005CD40A685207E7D55FEA0C417FF46DAFAD
:10176000016841F400710160202084F83D0084F894
:101770003E6084F83C60304601B0BDE8F08300BFB5
:10178000FFF75EFD202002E0FFF75AFD2020002138
:101790002022216384F83D2084F83E10226C01262B
:1017A0001043206484F83C10304601B0BDE8F0835B
:1017B0000868400504D4FFF743FD202004E000BF83
:1017C0006FF480600860042000212022216384F8E7
:1017D0003D2084F83E10226C1043206484F83C10B5
:1017E000206C042825D120680126016841F400718D
:1017F0000160304601B0BDE8F08300BF08684005D5
:1018000004D4FFF71DFD202004E000BF6FF48060CA
:101810000860042000212022216384F83D2084F800
:101820003E10226C1043206484F83C10206C042885
:10183000D9D00126304601B0BDE8F08310B586B09E
:10184000006845F20042C4F2000200219042049177
:1018500002D006B010BD00BF41F21804C4F2020469
:10186000206802A940F008002060206800F008000D
:10187000019001984FF440700290122003900320D1
:10188000059040F60040C4F20100FFF7CFFB0420B2
:10189000C4F20100016841F0E06141F00201016021
:1018A000606840F400106060606800F4001001900F
:1018B000019806B010BD000040F2000040F2247113
:1018C000C2F20000C2F2000100780A681044086009
:1018D0007047000080B542F20000C4F202000168C7
:1018E00041F010010160032000F08AF80F2000F0A1
:1018F00005F800F027F8002080BD000070B540F228
:101900000006C2F2000640F20C013278C2F2000179
:101910004FF47A730968B3FBF2F20446B1FBF2F1BB
:10192000084600F05FFB0F2C4FF0010508D838B9CE
:101930004FF0FF3021460022002500F035F874609A
:10194000284670BD82B041F21800C4F2020001685E
:10195000022241F001010160016801F001010191E1
:101960000199416841F080514160406800F0805029
:10197000009000980420C4F20100016862F31A612B
:10198000016002B070470000002848BF704700F0B7
:101990001F01012202FA01F14EF200124009CEF2BB
:1019A000000242F82010704710B54EF60C5CCEF2E3
:1019B000000CDCF80030C3F3022E8EF00704042C78
:1019C00028BF0424BEF103034FF0FF3E0EFA04F4D7
:1019D00038BF0023A14399400EFA03F39A43114301
:1019E00000F00F02043A624409010C3200F1604336
:1019F000B0F1FF3FC8BF03F56442117010BD000095
:101A00004EF60C51CEF200010A684FF6FF031A4061
:101A100060F30A2242F0806040F0FD700860704779
:101A20002DE9F04381B0002800F0858042F20008E3
:101A3000C4F202080446D8F800000D4600F0070082
:101A400088420CD2D8F8000020F007002843C8F8DC
:101A50000000D8F8000000F00700A8426BD1206811
:101A600041F204098107C4F2020917D5410705D5DF
:101A7000D9F8001041F4E061C9F80010010705D55C
:101A8000D9F8001041F46051C9F80010D9F80010DD
:101A9000A26821F0F0011143C9F80010C00741D13C
:101AA000D8F8000000F00700A8420CD9D8F80000D0
:101AB00020F007002843C8F80000D8F8000000F024
:101AC0000700A84237D12068410707D5D9F8001090
:101AD000E26821F4E0611143C9F80010000708D55D
:101AE000D9F80000216920F4605040EAC100C9F82B
:101AF0000000D9F8002002F00C00082841F2002074
:101B0000C0F27A0050D145F2D673C2F38341C0F6D9
:101B10000003595CD2033BD440F60010C0F23D00F4
:101B2000484341E0606802280AD001282AD159F8C8
:101B3000041C890308D4012001B0BDE8F08300BF74
:101B400059F8041C8901F6D5D9F8001021F00301D9
:101B50000843C9F80000FFF773FB064641F28837D7
:101B6000D9F80000616800F00C00B0EB810F97D04D
:101B7000FFF766FB801BB842F2D9032001B0BDE835
:101B8000F08300BF59F8041C8907D4D5DCE700BFF7
:101B9000D9F8002045F2BC73C2F34042C0F60003FE
:101BA0009A5C4843B0FBF2F0D9F8001045F2BE72DF
:101BB000C1F30311C0F60002515C40F20C0220FA9E
:101BC00001F140F20400C2F200000068C2F200021B
:101BD0001160FFF793FE002001B0BDE8F083000024
:101BE00040F20C0041F20401C2F20000C4F2020112
:101BF0000068096845F2CE72C1F30221C0F6000206
:101C0000515CC8407047000040F20C0041F20401F2
:101C1000C2F20000C4F202010068096845F2CE7207
:101C2000C1F3C221C0F60002515CC84070470000F9
:101C30002DE9F04182B0002868D00446007841F2D6
:101C40000006C007C4F2020625D0706800F00C0040
:101C500004281BD0706800F00C00082802D17068BE
:101C6000C00313D46068002800F06881B0F5A02F8D
:101C700000F07C81B0F5803F00F07C81306820F47A
:101C800080303060306820F4802076E13068800356
:101C900001D56068D0B32078800718D5706810F03F
:101CA0000C0F07D0706800F00C0008286ED1706827
:101CB000C0036BD43068800702D52069012825D184
:101CC0003068616920F0F80040EAC1003060207897
:101CD00000071FD42078400732D4E56995B17068B9
:101CE00000F00C00082840F08F80012D0ED07068A5
:101CF000216A00F480328A4208D1616A00F47010CF
:101D0000884203D1002002B0BDE8F081012002B07A
:101D1000BDE8F081A069002862D00020C4F2422012
:101D20000121C0F88014FFF78BFA0546706A80071E
:101D300000F18C80FFF784FA401B0228F6D92AE1D3
:101D4000F06910F0805808D1F06940F08050F061DF
:101D5000F06900F080500090009847F20007C4F24C
:101D600000073868C00529D4386840F480703860AE
:101D7000FFF766FA054600BF3868C0051ED4FFF7B6
:101D80005FFA401B6428F7D905E100BF20690028ED
:101D900040F20000C4F2422000F082800121016084
:101DA000FFF74EFA054600BF306880073FF588AF61
:101DB000FFF746FA401B0228F6D9ECE0E06800285D
:101DC00000F08080052800F09780012800F09880BE
:101DD000306A20F001003062306A20F0040092E0A6
:101DE0000020C4F242200021C0F88014FFF728FA36
:101DF000054600BF706A80077FF56CAFFFF720FAD9
:101E0000401B0228F6D9C6E00027C4F24227002072
:101E10003866FFF715FA022D05460BD130688001B0
:101E200040F1BE80FFF70CFA401B02284FF0030080
:101E3000F4D968E7306880017FF564AFFFF700FAF6
:101E4000401B02284FF00300F4D95CE740F20C007D
:101E5000C2F20000006844F6D351C1F26201A0FB57
:101E60000101480A019000BF00BF0198411E0028EF
:101E700001913FF42FAF00BF0198411E002801914E
:101E80003FF428AF00BF0198411E002801913FF4A4
:101E900021AF00BF0198411E00280191E4D119E74C
:101EA00000210160FFF7CCF9054600BF30688007CC
:101EB0007FF50DAFFFF7C4F9401B02284FF0030078
:101EC000F4D920E7306A20F001003062306A20F057
:101ED00004003062FFF7B4F9054641F2883700BFCD
:101EE000306A800720D5FFF7ABF9401BB8424FF0AE
:101EF0000300F5D907E700BF306A40F00400306204
:101F0000306A40F001003062FFF79AF9054641F26D
:101F1000883700BF306A800706D4FFF791F9401B6D
:101F2000B842F7D937E000BFB8F1000F7FF4D5AE63
:101F3000F06920F08050F061CFE600BF306820F4F7
:101F400080303060306820F480203060FFF778F90E
:101F5000054600BF306880037FF59DAEFFF770F93E
:101F6000401B64284FF00300F4D9CCE6306840F4FD
:101F700080203060306840F480303060FFF760F9D6
:101F8000054600BF306880033FF585AEFFF758F97E
:101F9000401B6428F6D9032002B0BDE8F08100BFE1
:101FA000206AB0F5803F05D17168A26821F4003144
:101FB000114371607168626A21F47411104308431F
:101FC000706001203866FFF73BF9044630688001F5
:101FD0003FF598AEFFF734F9001B02284FF00300DD
:101FE000F4D990E6411E0020B0EB116F1CBF012018
:101FF00070474EF21002CEF2000251604EF62351AD
:10200000CEF20001F0230B70072190601160704741
:10201000002804BF0120704710B5044690F83D0029
:1020200028B9002084F83C00204600F05FF8242006
:1020300084F83D002068D4E90212C36823F40053F9
:10204000C360036923F440531A430261D4E90423B3
:102050001143C268194341F20C639A431143C160B2
:102060004169A26921F44071114343F60002C4F2B0
:1020700001029042416103D0FFF7B2FD02E000BFD0
:10208000FFF7C2FD6268192148439100B0FBF1F0EF
:1020900048F21F51C5F2EB11A0FB01235A096FF062
:1020A000630302FB0300322303EB0010A0FB0101DA
:1020B000F02303EA5113206803EB0212C1F343112A
:1020C00011448160016921F490410161416921F06D
:1020D0002A014161C16841F40051C1600020202102
:1020E000206484F83D1084F83E1010BD70B586B0B1
:1020F00040F60044C4F20104006804F530510026A3
:102100008842049602D006B070BD00BF41F21800AC
:10211000C4F20200016802AD41F48041016001682F
:1021200001F4804101910199016841F008010160C9
:102130000068294600F008000190019840200290B4
:1021400002200390032005902046FEF76FFF8020B9
:10215000CDE90206204629460496FEF767FF0420D3
:10216000C4F201000168002241F0E06141F0040185
:10217000016025200021FFF717FC2520FFF704FC54
:1021800006B070BDFEE70000FEE70000FEE70000BD
:102190007047000040F2E00040F21431C2F200004B
:1021A000C2F2000140F21C52C2F200024160C1685A
:1021B0008260486940F001004861C86840F0200032
:1021C000C86070477047000040F2E000C2F20000B3
:1021D000018800291CBF0139018040F21000C2F2C1
:1021E000000001680129A4BF01390160FFF764BB49
:1021F0007047000040F2EC00C2F20000AFF3008034
:1022000000680268C168930618D511F0200315D044
:10221000016840F2E001C2F2000140684968D1F86B
:102220000022D1F8043201326FF35F229A4227D0A4
:10223000D1F80032C854C1F80022704712061FD5E9
:1022400011F0800108BF704740F21C51C2F200013A
:10225000D1F80022D1F804329A4205D1C16821F0A8
:102260008001C160704700BFD1F804228A5CD1F8B8
:10227000043201336FF35F23C1F804320168426016
:1022800070470000FEE70000B0B50446FEF7FDF819
:1022900040F2E00EC2F2000EDEF804204FF4FA7CA9
:1022A000AEF800C0D2F80032D2F80412591AC905AB
:1022B00016D1D2F80012D2F80432C91AC90501BFEA
:1022C000D2F80012D2F80432C91A5FEAC15107D11C
:1022D000D2F80012D2F80432C91AC905E2D000BF00
:1022E000D2F80012D2F80432994205D0D2F8041282
:1022F000535C21788B4213D0D2F80412D2F800320A
:10230000994259D0D2F8041201316FF35F21C2F81B
:102310000412D2F80012D2F804329942E6D1EBE767
:10232000D2F80012D2F80452A9423FD0D2F80412D7
:10233000515C99423AD10023D2F8041201330131A1
:102340006FF35F218342C2F8041233D0AEF800C0AD
:10235000D2F80012D2F80452491BC90516D1D2F89E
:102360000012D2F80452491BC90501BFD2F800126D
:10237000D2F80452491B5FEAC15107D1D2F80012CA
:10238000D2F80452491BC905E2D000BFD2F80012AE
:10239000D2F80452A94205D0E15CD2F80452555D4E
:1023A0008D42C9D083427FF47BAF03E00023834298
:1023B0007FF476AF0120B0BD0020B0BD2DE9F04F15
:1023C00085B040F2C4088346C2F200080020C8F875
:1023D00000009BF800200C462C2A20D0022000BFD1
:1023E000421EC8F800200BEB000111F8013C2C2B19
:1023F00014D0C8F800001BF800202C2A0FD0421C73
:10240000C8F800204B782C2B08D0821CC8F800207C
:10241000897804302C29E3D1023800E01046411EAF
:10242000881CC8F800000BEB010293782C2B13D00A
:10243000CB1CC8F80030D7782C2F10D0081DC8F856
:10244000000017792C2F09D00531C8F800105179F8
:102450002C290146E4D102E0481C00E01846002186
:102460005A4600BF4718BB1CC8F800301618B5788C
:102470002C2D16D0FB1CC8F80030F5782C2D10D070
:102480003B1DC8F8003035792C2D0AD07B1DC8F8CB
:102490000030737904322C2B01F10401E2D108449D
:1024A000431C591E881CC8F800000BEB01029378EE
:1024B0002C2B13D0CB1CC8F80030D7782C2F10D081
:1024C000081DC8F8000017792C2F09D00531C8F86D
:1024D000001051792C290146E4D102E0481C00E0AB
:1024E000184600215A4600BF4718BB1CC8F80030E8
:1024F0001618B5782C2D16D0FB1CC8F80030F578CE
:102500002C2D10D03B1DC8F8003035792C2D0AD069
:102510007B1DC8F80030737904322C2B01F10401C3
:10252000E2D10844431C591E881CC8F800000BEB7C
:10253000010293782C2B13D0CB1CC8F80030D7782D
:102540002C2F10D0081DC8F8000017792C2F09D0A7
:102550000531C8F8001051792C290146E4D102E078
:10256000481C00E018460230C8F800001BF80000C4
:10257000A0F1310105292BD8012000FA01F111F059
:10258000230F25D04FF000090194E061C8F80090B6
:102590001BF809002C2809F1010021D0C8F800001F
:1025A0000BEB090041782C2909F102010ED0C8F883
:1025B000001081782C2909F1030107D0C8F8001018
:1025C000C07809F104092C28E0D10AE0894608E026
:1025D0000020E0610125284605B0BDE8F08F00BF6E
:1025E0008146C8F800901BF8095000202C2D02905D
:1025F000039004902BD00BEB090100200DF1080C87
:1026000009EB00035E1CC8F800600F187A780CF81C
:1026100000502C2A1AD09E1CC8F80060BD780CEB24
:1026200000042C2D627011D0DE1CC8F80060FA780E
:10263000A5702C2A0AD00433C8F800303D79043044
:102640002C2DE270DCD1814401E000BFB14602AD27
:102650002846FDF70DFF48F6AD31C6F6DB0180FBDD
:10266000010140F20800C2F20000066848F21F5360
:10267000C5F2EB1386FB0302081300EBD170511176
:1026800001EBD27427182846C8F804701D46FDF7E0
:10269000EFFE80FB0501481100EBD17080FB0512B5
:1026A000511101EBD271642201FB120004FB126193
:1026B00008443C28C8F80800A2BF3C380137C8E9E4
:1026C0000170002F06D4182F0FD301216FF01702CD
:1026D00003E000BF4FF0FF3118221744D8F818204C
:1026E000C8F804701144C8F81810019C0DF1080ACC
:1026F000C4E904705046FDF7BBFE80FB0512511182
:1027000001EBD271642201FB12000021A06109F1EA
:102710000100C8F800001BF8007002912C2F0391F3
:1027200004910BD10DF1080A5046FDF7AEFE0628C4
:102730002CD20225284605B0BDE8F08F0BEB09002E
:10274000002100BF09EB0102931CC8F800304318B8
:102750009D780AF801702C2DE4D0D71CC8F80070C1
:10276000DF780AEB01042C2F6570DBD0161DC8F84A
:1027700000601D79A7702C2DD4D00532C8F8002038
:102780005F7904312C2FE570DCD1CBE7044650464D
:10279000FDF76EFE074600204FF0FF310AEB010304
:1027A0005A782E2A10D0024698782E2810D0D87841
:1027B0002E2813D01B79101D2E2B01F10401EDD111
:1027C00042F003030CE000BF881C4B1C08E000BF74
:1027D00042F0010342F0020002E000BFCB1C081DE2
:1027E00050446FEA0309FDF743FE054638B202F094
:1027F000EFFA0023C4F25903002202F08FF90646D3
:102800002846009102F0E4FA054604EB0900023084
:102810000F4602F0DDFA0B4600210246C4F2240105
:10282000002001F045FB02460B462846394602F0DF
:1028300075F90B4600990246304602F0B3F802F0F3
:102840007FF8D8F80010019A1060481CC8F8000002
:102850001BF800001071C81CC8F800001BF80060CD
:1028600000222C2E02920392049225D00BEB010041
:10287000002200BF8B181F1DC8F8007087183C7914
:102880000AF802602C2C17D05E1DC8F800607E7913
:102890000AEB02052C2E6C700ED09C1DC8F800406F
:1028A000BC79AE702C2C07D00733C8F80030FE7905
:1028B00004322C2EEC70DDD15046FDF7D9FD814657
:1028C00000254FF0FF3000BF0AEB000251782E299F
:1028D00010D0937829462E2B10D0D3782E2B13D0DE
:1028E00012790D1D2E2A00F10400EDD141F00300F4
:1028F00000900CE0851C0130009008E041F00100E0
:10290000009041F0020502E0C11C051D00915046F7
:10291000FDF7BBFD04460AEB0500FDF7A9FD0746E0
:102920000FFA89F002F054FA0023C4F2590300228E
:1029300002F0F4F8814638460E4602F049FA07469E
:1029400000980D46201A013002F042FA0B46002191
:102950000246C4F22401002001F0AAFA02460B4606
:102960003846294602F0DAF802460B464846314618
:1029700002F018F801F0E4FFD8F80010DDF8049038
:102980004D1DC9F80800481CC8F800001BF80000DD
:10299000C8F8005089F80C001BF8056000202C2EA8
:1029A00002900390049029D00BEB010C002000BF93
:1029B0000B189D1DC8F800500CEB0007BA790AF8F7
:1029C00000602C2A1AD0DD1DC8F80050FE790AEBF1
:1029D00000042C2E627011D003F10805C8F80050D5
:1029E0003A7AA6702C2A09D00933C8F800307E7ACA
:1029F00004302C2EE270DBD10844451D02AE304677
:102A0000FDF736FD691EC9F8280000BF881CC8F80C
:102A100000000BEB010293782C2B13D0CB1CC8F8D1
:102A20000030D7782C2F10D0081DC8F80000177977
:102A30002C2F09D00531C8F8001051792C290146F6
:102A4000E4D102E0481C00E01846811CC8F80010E0
:102A50001BF8015000222C2D02920392049224D0E4
:102A60000BEB000C002200BF8318D91CC8F8001023
:102A70000CEB0207F978B5542C2916D01D1DC8F8A7
:102A800000503D79B4182C2D61700ED0591DC8F836
:102A900000107979A5702C2907D00633C8F80030CA
:102AA000BD7904322C2DE170DED13046FDF7E0FC1B
:102AB00081460027F05D2E280CD0F01941782E2990
:102AC0000AD081782E2909D0C07804372E28F1D178
:102AD00005E000BF013702E0023700E0033730466F
:102AE000FDF7D3FCC51BF019FDF7C2FC06460FFA33
:102AF00089F002F06DF9814630468A4602F068F9A5
:102B0000064628460F4602F063F90B4600210246AE
:102B1000C4F224010020002501F0CAF902460B4648
:102B20003046394601F0FAFF4A46534601F03AFF73
:102B300001F006FFD8F80010019A1062481CC8F88E
:102B400000001BF8000082F82400284605B0BDE80C
:102B5000F08F00002DE9F04F83B040F2C40A8046A8
:102B6000C2F2000A0020CAF8000098F800208B4644
:102B70002C2A20D0022000BF421ECAF8002008EBF9
:102B8000000111F8013C2C2B14D0CAF8000018F8F1
:102B900000202C2A0FD0421CCAF800204B782C2B86
:102BA00008D0821CCAF80020897804302C29E3D18F
:102BB000023800E01046411E881CCAF8000008EBED
:102BC000010293782C2B13D0CB1CCAF80030D77895
:102BD0002C2F10D0081DCAF8000017792C2F09D00F
:102BE0000531CAF8001051792C290146E4D102E0E0
:102BF000481C00E01846811CCAF8001018F80110A3
:102C000041293FD101210730CBF81410C11ECAF869
:102C1000001008EB000212F8033C2C2B15D0811E8B
:102C2000CAF8001012F8023C2C2B0ED0411ECAF834
:102C3000001012F8012C2C2A07D0CAF8000018F84E
:102C4000001004302C29E1D1011F0139881CCAF879
:102C5000000008EB010293782C2B1BD0CB1CCAF888
:102C60000030D7782C2F18D0081DCAF8000017792B
:102C70002C2F11D00531CAF8001051792C290146AA
:102C8000E4D10AE00020CBF81400012003B0BDE835
:102C9000F08F00BF481C00E018460021424600BFEC
:102CA0004718BB1CCAF800301418A6782C2E16D072
:102CB000FB1CCAF80030E6782C2E10D03B1DCAF859
:102CC000003026792C2E0AD07B1DCAF8003063799B
:102CD00004322C2B01F10401E2D10844431C591E9B
:102CE000881CCAF8000008EB010293782C2B13D043
:102CF000CB1CCAF80030D7782C2F10D0081DCAF88A
:102D0000000017792C2F09D00531CAF8001051792D
:102D10002C290146E4D102E0481C00E01846811C41
:102D2000CAF8001018F801704FF0000C2C2FCDF8E5
:102D300000C0CDF804C0CDF808C035D008EB0009BC
:102D40000023EE46C218D11CCAF8001009EB030498
:102D5000E6780EF803702C2E19D0111DCAF8001059
:102D600027790EEB03052C2F6E7010D0511DCAF879
:102D700000106679AF702C2E09D0911DCAF8001092
:102D8000A77904332C2FEE70DCD11844811C9DF8F8
:102D900000404CB16F463846FDF76AFB2E2C814649
:102DA00006D15E46012422E0CBF80CC04EE000BF05
:102DB000042400BF381910F8031C2E290ED010F877
:102DC000021C2E290ED010F8010C2E280ED0385DD2
:102DD00004342E28EED15E46033C08E05E46023CF9
:102DE00005E000BF5E46013C01E000BF5E4638469C
:102DF000FDF74BFBA0EB040B3819FDF739FB074639
:102E00000FFA89F001F0E4FF814638460D4601F0E3
:102E1000DFFF044658460F4601F0DAFF0B4600215B
:102E20000246C4F22401002001F042F802460B469B
:102E30002046394601F072FE4A462B4601F0B2FDAB
:102E400001F07EFDDAF80010B346F0604A1CCAF8C3
:102E5000002018F802704FF0000C2C2FCDF800C0A5
:102E6000CDF804C0CDF808C036D008EB0109002326
:102E7000EE4600BFC818821CCAF8002009EB030404
:102E8000A6780EF803702C2E19D0C21CCAF80020A8
:102E9000E7780EEB03052C2F6E7010D0021DCAF8D8
:102EA00000202679AF702C2E09D00530CAF800001A
:102EB000677904332C2FEE70DCD1C818421C9DF8C2
:102EC00000404CB16F463846FDF7D2FA2E2C8146B1
:102ED00006D15E46012422E0CBF810C04EE000BFD0
:102EE000042400BF381910F8031C2E290ED010F846
:102EF000021C2E290ED010F8010C2E280ED0385DA1
:102F000004342E28EED15E46033C08E05E46023CC7
:102F100005E000BF5E46013C01E000BF5E4638466A
:102F2000FDF7B3FAA0EB040B3819FDF7A1FA074639
:102F30000FFA89F001F04CFF814638460D4601F04A
:102F400047FF044658460F4601F042FF0B4600215A
:102F50000246C4F22401002000F0AAFF02460B46FC
:102F60002046394601F0DAFD4A462B4601F01AFDAB
:102F700001F0E6FCDAF80020B3463061501CCAF8D4
:102F8000000018F8004000212C2C009101910291C2
:102F900044D16C462046FDF76BFA48F6AD31C6F6D3
:102FA000DB0180FB0101081300EBD1752046CAF854
:102FB0000C50FDF75DFA48F21F56C5F2EB1680FB88
:102FC0000601481100EBD17080FB0612511101EB94
:102FD000D271642701FB1700CAF810002046FDF7E4
:102FE00047FA80FB0612511101EBD27101FB170069
:102FF000DAF81810CAF814004819CAF80C00CBF80F
:103000000000DAF81000CBF80400DAF81400CBF86E
:103010000800002003B0BDE8F08F00BF08EB0200FD
:103020000021EC465718BB1CCAF800304518AE7892
:103030000CF801402C2EACD0FB1CCAF80030EC7808
:103040000CEB01032C2C5E70A3D03E1DCAF800606F
:103050002E799C702C2E9CD00537CAF800706C79A4
:1030600004312C2CDE70DDD193E7000070B582B006
:103070003220FDF7C7FF40F2F81443F63C06C2F2D7
:103080000004C0F60C06642501AA20467E21042314
:1030900001960095FEF796F90520FDF7B3FF01AA0A
:1030A00020467E21042301960095FEF78BF901202E
:1030B000FDF7A8FF01AA20467E2104230196009572
:1030C000FEF780F90A20FDF79DFF42F62C00C0F6BE
:1030D0000C00019001AA20467E2104230095FEF7F2
:1030E00071F90A20FDF78EFF42F62C00C8F68C001D
:1030F000019001AA20467E2104230095FEF762F983
:103100000120FDF77FFF40F60C00C8F68C0001900F
:1031100001AA20467E2104230095FEF753F90120E1
:10312000FDF770FF40F60C00C1F61C00019001AAEB
:1031300020467E2104230095FEF744F90120FDF787
:1031400061FF0120FDF75EFF40F60C00C6F66C0043
:10315000019001AA20467E2104230095FEF732F952
:103160000120FDF74FFF40F60C00CCF6CC0001909B
:1031700001AA20467E2104230095FEF723F902B020
:1031800070BD0000012805D0002808BF41F0800173
:1031900002E000BF41F0C00180B582B021F00F0015
:1031A000090100F10C0208308DF8050001F10C0056
:1031B0008DF8060001F108008DF8070040F2F810C4
:1031C0008DF804204FF0640CC2F2000001AA7E21A9
:1031D0000423CDF800C0FEF7F5F802B080BD000072
:1031E000F0B583B0017821B340F2F814461E64278D
:1031F000C2F2000402AD00BF21F00F00090100F18E
:103200000D0209308DF8090001F10D008DF80A005A
:1032100001F109008DF808208DF80B0020467E2171
:103220002A4604230097FEF7CDF8B178013600292D
:10323000E2D103B0F0BD000096B0FEF74BFB0024D6
:103240000120CDE91144CDE90F440C9010904FF4CA
:10325000E0104FF48031022515900CA8CDE90D1433
:10326000CDE91351FEF7E4FC20B1EFF3108072B604
:10327000FEE700BF0F20CDE907054FF48060CDE9E0
:103280000A0407A802210994FEF7CAFB20B1EFF354
:10329000108072B6FEE700BF41F21800C4F20200CF
:1032A000016845F2004541F0200101600168C4F267
:1032B000000501F020010C910C990168002441F0F7
:1032C0000401016001684FF4804201F004010C9197
:1032D0000C99016841F008010160006848F2A061A2
:1032E00000F008000C900C9840F2F810C2F20000B8
:1032F000C0F20101C0E90051C0E90244C0E9042460
:10330000C0E906440462FDF7A1FF28B1EFF3108085
:1033100072B600BFFEE700BF40F2EC0005F5644165
:10332000C2F200000C234FF4165280E81600C0E9E8
:103330000344C0E90534C461FEF76AFE20B1EFF32F
:10334000108072B6FEE700BFFFF790FEFEF722FF87
:103350004FF49670FDF756FE40F27805C2F2000574
:1033600040F2100B05F1080040F24C27C2F2000BAE
:1033700041F2883A069005F13400C2F20007059048
:1033800076A0FEF781FF012816D140F2301445F2F5
:10339000E670C2F20004C0F600002146CBF800A09F
:1033A000FDF77CFD06992046FFF708F800284FF04E
:1033B000010008BF0220286069A0FEF765FF012810
:1033C00016D140F2941445F2E670C2F20004C0F641
:1033D00000002146CBF800A0FDF760FD05992046CE
:1033E000FFF7B8FB002861D00120686001E000BF52
:1033F00068682968022918BF022859D0012918BF16
:10340000012805D0DBF800000028B9DC8CE000BF03
:1034100000200221FFF7B6FE52A0FFF7E1FE0120D7
:103420000021FFF7AFFE53A0FFF7DAFE6420FDF79F
:10343000E9FD01200021FFF7A5FE52A0FFF7D0FE15
:103440006420FDF7DFFD01200021FFF79BFE52A065
:10345000FFF7C6FE6420FDF7D5FD01200021FFF730
:1034600091FE52A0FFF7BCFE6420FDF7CBFD0120CA
:103470000021FFF787FE52A0FFF7B2FE6420FDF7A0
:10348000C1FD01200021FFF77DFE52A0FFF7A8FE3D
:103490006420FDF7B7FD01200021FFF773FEDBF884
:1034A000000000283FF76CAF3EE000BF02206860DC
:1034B00000200021FFF766FE286A05F1340652CE8F
:1034C000D5E906238DE8130045F2F9713846C0F6B8
:1034D00000010396FCF790FE3846FFF781FE384660
:1034E0003221FCF7F1FF01200021FFF74BFEA86815
:1034F00001F0D6FF804628692E7B894601F0D0FF77
:103500002A7D0C4602900492384637A142464B462B
:1035100000960394FCF770FE3846FFF761FEDBF877
:10352000000000283FF72CAF0020C5E90000002074
:103530000021CBF800A0FFF725FE45F2E870C0F6A9
:103540000000FFF74DFE01200021FFF71BFE45F6AE
:103550001600C0F60000FFF743FE11E747474100A1
:10356000524D43005363616E6E696E67204750533E
:10357000000000002020506C656173652077616950
:10358000742020002020506C65617365207761698C
:10359000742E2020000000002020506C65617365AF
:1035A00020776169742E2E20200000002020506CAE
:1035B0006561736520776169742E2E2E20200000CE
:1035C0002020506C656173652077616974202E2E10
:1035D000202000002020506C6561736520776169B0
:1035E0007420202E20200000252E326625632C20FA
:1035F000252E326625632020000000005FEA400C83
:1036000008BF91F0000F4FEA8C234FEAC12243EA32
:1036100051514FEA1C5018BF00F5F0404FEA3000FE
:1036200018BF41F000415FEA6C5C00F02980BCF1FA
:10363000FF3F08BF40F080407047130C06BF1204E4
:103640004FF0100C4FF0000C130E04BF12020CF1DF
:10365000080C130F04BF12010CF1040C930F04BFEC
:1036600092000CF1020CD30F04BF52000CF1010CBC
:1036700011464FF00002A0F11F00A0EB0C007047B4
:1036800011F0004F08BF704731F000413FF4D5AF53
:103690000B0C06BF09044FF0100C4FF0000C0B0E82
:1036A00004BF09020CF1080C0B0F04BF09010CF157
:1036B000040C8B0F04BF89000CF1020CCB0F04BF6C
:1036C00049000CF1010CCCF1200322FA03F341EA8A
:1036D000030102FA0CF2A0EB0C0000F101007047AC
:1036E00023F07F4720F07F4C80EA030000F0004089
:1036F000ACEB070303F57C5303F1FF032DE980498D
:1037000009B44FEA144324EA03484FEA154B25EA6B
:103710000B4E0FF2042606EB13273E7803FB0667D9
:10372000C7F5000707FB06F64FEAD64606F1020684
:103730004FEA543707FB066CCCF1005C4FEA1C479C
:103740002CEA074C0CFB06F507FB06F404EB1546C8
:103750004FEA961649085FEA320234BF00204FF064
:1037600000404FEAD13706FB07FC4FEA1C4C0CFB2C
:103770000BF7D21B03FB0CF761EB07010CFB0EF7F9
:10378000B0EB074072EB17420CFB08F734BFA2EB1B
:103790000742B2EB074261EB17414FEA0C444FEA94
:1037A000910706FB07FC4FEA1C4C0CFB0BF7B0EB38
:1037B000C74072EB573203FB0CF734BFA2EBC74292
:1037C000B2EBC74261EB57310CFB0EF7B0EBC70011
:1037D00072EB57720CFB08F734BFA2EBC702B2EBD7
:1037E000C70261EB57714FEA816141EA92114FEADA
:1037F000826242EA90124FEA806004EBCC04039F9D
:103800004FEAD13706FB07FC4FEA1C4C0CFB0BF7C9
:10381000D21B03FB0CF761EB07010CFB0EF7B0EBBF
:10382000074072EB17420CFB08F734BFA2EB0742CC
:10383000B2EB074261EB17414FEA8C5504EB9C2435
:103840004FEA910706FB07FC4FEA1C4C0CFB0BF7F9
:10385000B0EBC74072EB573203FB0CF734BFA2EB5F
:10386000C742B2EBC74261EB57310CFB0EF7B0EB2E
:10387000C70072EB57720CFB08F734BFA2EBC7020C
:10388000B2EBC70261EB57714FEA816141EA9211D5
:103890004FEA826242EA90124FEA806015EB4C25B3
:1038A00044F100044FEAD13706FB07FC4FEA1C4CF9
:1038B0000CFB0BF7D21B03FB0CF761EB07010CFBB6
:1038C0000EF7B0EB074072EB17420CFB08F734BF62
:1038D000A2EB0742B2EB074261EB17414FEA81319D
:1038E00041EA92414FEA823242EA90424FEA803006
:1038F0004FEA0C7615EB1C1544F1000448EA03432B
:103900004EEA0B484FF0000EB2EB080C71EB0307C8
:1039100024BF624639464EEB0E0E4FF0000B0018E6
:10392000524149414BEB0B0BB2EB080C71EB030717
:103930007BF1000B24BF624639464EEB0E0E4FF072
:10394000000B0018524149414BEB0B0BB2EB080C3A
:1039500071EB03077BF1000B24BF624639464EEB47
:103960000E0E51EA020718BF46F0010616EB0E765E
:1039700055F1000254F1000103D5BDE88901BDE80D
:103980000088BDE88901BDE80048B619524141EB05
:103990000101A3F10103704780807F7E7D7C7B7AEB
:1039A0007978777676757473727171706F6E6E6DEB
:1039B0006C6C6B6A6A696868676666656464636391
:1039C00062616160605F5F5E5E5D5D5C5C5B5B5A17
:1039D0005A59595858575756565555555454535384
:1039E00052525251515050504F4F4F4E4E4D4D4DDF
:1039F0004C4C4C4B4B4B4A4A4A494949484848472A
:103A00004747474646464545454444444443434367
:103A100043424242424141419C46002B30D4770010
:103A20002BD04FEA37071CB503B44FF010004FF00E
:103A30001001BAF1000F06D0BCF1000FDCBF40F05E
:103A4000080040F008014FF000000FBCBDE8104036
:103A50000BF1010BBBF1010F08BF5FEA170722BF93
:103A600012F1010211F101014FF0004143F1000395
:103A700000F0004043EA00007047F9D35708D0E750
:103A800046EA06464FEA164613F1400F1FDD13F1D2
:103A9000200FDFBF16430A46002120335B42BED011
:103AA000C3F1200746EA06464FEA164602FA07F730
:103AB00046EA070622FA03F2C3F1200701FA07F7E4
:103AC00042EA070221FA03F14FF00003A7E746EAB2
:103AD000020646EA06464FEA164646EA0106BCBF1B
:103AE00046EA0646360C4FF000034FF000024FF056
:103AF000000194E72DE9804C70B49A46934691E812
:103B0000380007C831EA400C48BF34EA430C03D5FB
:103B1000FFF7E6FDFFF780FFF0BCBDE8008C2DE964
:103B2000804C70B49A46934691E8380007C810F06C
:103B3000804F08BF13F0804F03D100F005F8FFF766
:103B40006BFFF0BCBDE8008C20F07F4723F07F4C7A
:103B500080EA030000F0004007EB0C03A3F57C5360
:103B6000A3F1FE0392F0000F00F0B38095F0000F78
:103B700000F077802DE901494FEA114021EA004821
:103B80004FEA144624EA064700FB06FC08FB06F64B
:103B900007FB08F818EB06484CEB164C00FB07F740
:103BA00018EB07484CEB17404FEA124B22EA0B4E3A
:103BB0004FEA154625EA06470BFB06FC0EFB06F608
:103BC00007FB0EFE1EEB064E4CEB164C0BFB07F7ED
:103BD0001EEB074E4CEB174B18EB0B0840F10000A7
:103BE00018EB0E0B58EB000840F100008F1A4FF055
:103BF00000014FF000063CBFC943661B14BFB5EB84
:103C0000040C00213CBFC943F61B4FEA174427EAC6
:103C100004454FEA1C472CEA074C04FB076205FBEE
:103C200007F70CFB05F616EB074642EB174204FBC1
:103C30000CFC16EB0C4642EB1C421BEB060658EB49
:103C4000020241414EEA8E0E46EA9E0601D5BDE8CB
:103C50000189B619524141EB0101A3F10103BDE80D
:103C600001894FEA144524EA05464FEA114721EA43
:103C7000074C05FB07F406FB07F70CFB06F111EBFD
:103C8000074144EB174405FB0CFC11EB0C4144EBE2
:103C90001C444FEA124722EA074C05FB07F206FBD9
:103CA00007F70CFB06F616EB074642EB174205FB3F
:103CB0000CFC16EB0C4642EB1C456A1854F1000153
:103CC00048BF7047B619524141EB0101A3F101030E
:103CD000704795F0000F37D04FEA114221EA0246B3
:103CE0004FEA144724EA074C02FB07F106FB07F7EB
:103CF0000CFB06F414EB074441EB174102FB0CFCF0
:103D000014EB0C4441EB1C414FEA154725EA074CE4
:103D100002FB07F506FB07F70CFB06F616EB07465A
:103D200045EB174502FB0CFC16EB0C4645EB1C4221
:103D3000121951F1000148BF7047B619524141EBC9
:103D40000101A3F1010370474FEA144524EA054637
:103D50004FEA114721EA074C05FB07F106FB07F77D
:103D60000CFB06F212EB074241EB174105FB0CFC82
:103D700012EB0C4251EB1C414FF0000648BF70475C
:103D8000921841EB0101A3F101037047490050EA89
:103D9000C12018BF04204A0D18BF40F0010040F2B6
:103DA000FF72B2EB515F08BF40F00200012808BF6C
:103DB000052070472DE9F0414F1E00EBC701044676
:103DC000D1E9000115461E4637F006020DD02A46FD
:103DD000334601F051F87F1E04EBC703D3E90023FB
:103DE00000F0E0FD37F00602F1D1022F25D0042FBC
:103DF00013D0062F18BFBDE8F0812A46334601F0E4
:103E00003BF8D4E90A2300F0CDFD2A46334601F001
:103E100033F8D4E9082300F0C5FD2A46334601F003
:103E20002BF8D4E9062300F0BDFD2A46334601F005
:103E300023F8D4E9042300F0B5FD2A46334601F007
:103E40001BF8D4E9022300F0ADFD2A46334601F009
:103E500013F8D4E90023BDE8F04100F0A3BD000051
:103E6000002213461046014900F058BE0000F03F02
:103E700000F098BD002213461046114600F04EBED9
:103E800040F2013200204FF0E04101F0B3BB0000EE
:103E9000024A0020110701F0ADBB000001FDFFFF49
:103EA00030380A2801D201207047002070470000F6
:103EB0002DE9F04D1D460C4694B0174621F0004107
:103EC00023F00043002814BF4FF0010C4FF0000C0A
:103ED0000CEB440CFB4A0CEB02064FEA620C664505
:103EE0002BD33E0018BF012606EB45061644F64AC2
:103EF000964222D3F54A53EA070C02D0944205D1E8
:103F000048B914B000201146BDE8F08D002808BF64
:103F10004FF0000C01D04FF0010C0CEB440212F5F5
:103F2000001F0AD8002F14BF4FF0010C4FF0000CF7
:103F30000CEB450212F5001F07D914B03A462B4688
:103F40002146BDE8F04DFFF793BF0022DFF880A3C4
:103F5000002CB8BF534526DADFF878C36345A8BF05
:103F6000022220DADFF864C39C451CDCDFF868C35A
:103F70000CEB235CBCF1140F08DDCCF1340627FAFE
:103F800006FC0CFA06F6BE420DD108E05FB9CCF192
:103F9000140623FA06FC0CFA06F69E4203D10CF036
:103FA0000102C2F1020251EA000C19D1002D17DA08
:103FB000002C18BF022A01D0012A07D00220FCF7EA
:103FC000B6FA14B0BDE8F04DFFF74ABF0220FCF787
:103FD000AEFAFFF745FF14B081F00041BDE8F08D67
:103FE000B7F1000C6CD1534525D104F1804212F594
:103FF000801201BF00280020B44914B008BFBDE8FA
:10400000F08DB248884207DC002DA1BF60462946EA
:1040100014B0BDE8F08D07E0002DBFBF604685F00D
:10402000004114B0BDE8F08DAC497944D1E90001FC
:1040300014B0BDE8F08DDFF894C2634525D1002DA2
:104040001FDA19B1514512D1D8B909E0002840F062
:10405000F6829F4A214614B062F31E01BDE8F08D3E
:104060000020214614B060F31E01BDE8F08D08DA8F
:1040700014B02346BDE8F04D02460020614600F032
:104080004DBD14B02146BDE8F08D514518DAB5F1AB
:10409000804F0DD0A5F1005CBCF1FF5C10D1B4F1F4
:1040A000000C0DDB14B06146BDE8F04D00F0F6BB2E
:1040B000234614B00246BDE8F04D194600F0DCBEC0
:1040C000060024F0004C3BD1D9B1514533D1002C2E
:1040D00006DD002DA1BF0020514614B0BDE8F08DD3
:1040E000002C01DD002D1BDB002C13DA002D11DB71
:1040F000012A4FF0000014BF7549794914B0BDE89A
:10410000F08D022A18BF002C0AD0012A08D1002CF9
:1041100006DA0AE0002CB8BF002D11DA012A04D01B
:10412000002014B00146BDE8F08D14B000204FF01F
:104130000041BDE8F08DA1F14050B0F17F601AD090
:10414000012000EBE47050EA020421D05F4C521EC3
:104150004FF0000B104304BF4FF0000B614C62485E
:1041600083427DDD614A6248934229DD884217DB44
:10417000002D2FDB41E0002C00DA4AB1022A0CBFEF
:1041800001204FF0FF3014B0BDE8F04D00F020BE2C
:104190000120FCF7CCF914B0BDE8F04DFFF76ABE82
:1041A0004A4A8A420CDC002D14DC0220FCF7BFF9DD
:1041B000FFF76EFE61F31E0414B02146BDE8F08DDA
:1041C000814202DA002D18DA04E0404B994220DDEA
:1041D000002D12DD0220FCF7AAF9FFF751FE05467B
:1041E0000E46002253465846214600F045FE14B0C4
:1041F00066F31E012846BDE8F08D0220FCF797F912
:10420000FFF746FE0A46214614B062F31E01BDE8E0
:10421000F08D00223046614601F054F8064688468B
:104220006FF0010201F0E6F94FF05532314B00F02A
:1042300057FF3246434600F01FFE00222E4B00F08F
:104240004FFF8A463246434602901046194600F018
:1042500013FE5346029A00F00FFE8246324600E0FB
:1042600054E0059143464FF0C040244900F004FE5D
:10427000CDE90C01224A214B5046059900F0FCFD86
:10428000824601911F4A204B3046414600F0F4FD22
:104290005246019B01F016F882460B4602460991F0
:1042A000DDE90C0100F07EFBDDE90C2300268846E9
:1042B000304601F007F85246099B00F011FF024614
:1042C00000F07EB9FFFF1F00FFFF0F000000F03F6E
:1042D0000000F07F0000404301FCFFFFF2160000E9
:1042E0000000F0FF0000F0BF0000E0410000F043DC
:1042F000FFFFEF3F5555D53F0000E03F4715F73F23
:10430000FE822B6544DF5DF80BAE543E0020B1F514
:10431000801F07DA35223046614601F06BF9064608
:104320006FF0340000EB2150A0F2FF300190C1F398
:10433000130040F07F6141F040510291FE498842F4
:10434000D8BF002004DDFD498142C8BF012001DD46
:104350000F9008E000200F900198401C01900298F7
:10436000A0F5801002900299F548784405910F99C4
:1043700000EBC1001290D0E900233046059900F00F
:10438000A1FFCDE90C011298D0E900233046059930
:1043900000F008FB02460B460020EA4900F0BEFB95
:1043A0000B46CDE908010246DDE90C0100F064FD91
:1043B0000A90E5488A464FF0000878440299006860
:1043C00010904FF0005040EA61010F9801EB8040DF
:1043D00000F5002112981191D0E90023109800F007
:1043E00071FF3246059B00F07BFE4246534600F0CB
:1043F00043FDDDE91023064603914046514600F097
:104400003BFDDDE90C2300F06BFE3246039B00F020
:1044100059FFDDE9082300F02FFD03910A9A12905D
:1044200053461046194600F027FD06460246C74887
:104430000B46029106217844FFF7BCFC029B3246F2
:10444000059108901046194600F016FD059B089A44
:1044500000F012FD064609915346404619460A9A55
:1044600000F0A0FA039B129A00F006FD3246099B69
:1044700000F098FACDE90801424653461046194625
:1044800000F0FAFC02460B46029104900020B0496D
:1044900000F088FADDE9082300F084FA0E4642466F
:1044A000AB4B404600F00EFF029B049A00F00AFF5F
:1044B000DDE9082300F014FE4246049102903346E1
:1044C0001046514600F0D8FCCDE90C0153460A9A3B
:1044D0000499029800F0D0FC82460091334642468F
:1044E0000399129800F0C8FC5246009B00F05AFA5B
:1044F00082460B4602460991DDE90C0100F052FAB2
:10450000DDE90C2300268846304600F0DBFE5246EB
:10451000099B00F0E5FDCDE90801434632464FF026
:1045200060408C4900F0A8FC82460491DDE9080156
:10453000894A884B00F0A0FC029100904346324625
:104540008648874900F098FC029B009A00F02AFAFE
:10455000844B7B440F9A03EBC203D3E9002300F0A2
:1045600021FA00900291019800F032FC0E90039124
:104570005046029B009A049900F014FA7A4A7A4451
:104580000F9B02EBC3030993D3E9002300F00AFA5F
:10459000039B0E9A00F006FA88463046039B0E9A5B
:1045A00000F090FE099BD3E9002300F08BFE5246F9
:1045B000049B00F087FE029B009A00F091FD0246EA
:1045C00000200B4602903846294600F055FC8246F2
:1045D00003912B4638461946029A00F073FE324684
:1045E000434600F049FC5246039B00F0DBF90746C6
:1045F0008A46324643462946029800F03DFC05466D
:104600000E463A46534600F0CDF9584A8846914244
:1046100021DBA8EB020353EA000210D12A463346FD
:1046200000F050FECDE90310514A524B3846514636
:1046300000F0B8F9DDE9033200F01CFD21D20220C0
:10464000FBF775FFFFF71CFC0A46214614B062F326
:104650001E01BDE8F08D484B28F000429A4210D36D
:10466000464A08EB020353EA00027FF4C6AD2A462D
:10467000334600F027FE3A46534600F0FBFC7FF637
:10468000BCAD0022019228F000403D493D4A01EBBB
:104690002051824223DA481C4FF4801121FA00F0A5
:1046A0004044394AC0F30A517A44384BA1F2FF31F1
:1046B000CB4020EA0303C0F3130040F48010C1F1A3
:1046C0001401C84012680190B8F1000FBCBF40420D
:1046D00001902846314600F0F5FD05460E462A4673
:1046E00033463846514600F05DF94FF00008424627
:1046F000274B4046039100F0BFFBCDE90C01254A52
:10470000254B4046039900F0B7FB029100902A46E2
:1047100033464046039900F0D5FD3A46534600F033
:10472000DFFC1E4A1E4B00F0A7FB029B009A00F024
:1047300039F90746884635E08E9803007AB60B00B3
:104740002A1300000000F03F621300008E120000E8
:104750000000084009C7EE3FFD033ADCF5015B1499
:10476000E02F3EBE621100002611000000009040C4
:10477000FE822B654715973C00CC904000346F3F7C
:1047800001FCFFFF0000E03F74100000FFFF0F007E
:10479000432EE63F396CA80C615C20BEEF39FAFE6F
:1047A000422EE63F02460B46DDE90C0100F0FAF826
:1047B000DDE90C2305460E4600F084FD3A464346EB
:1047C00000F08EFC07462A463346059110461946EE
:1047D00000F052FB824602462E4888460B460521D1
:1047E0007844FFF7E7FA5246434600F045FB2A4675
:1047F000334600F075FC80468A463A4628463146E4
:10480000059B00F039FB3A46059B00F0CBF805917B
:10481000009000224FF080434046514600F052FD88
:1048200007460391424653462846314600F024FB92
:104830003A46039B00F072F9059B009A00F042FD96
:104840002A46334600F03EFD0022134B00F048FCA0
:10485000054601980E4601EB00510815002810DCB2
:1048600028463146019A00F0C5FEFFF78FFA04286A
:1048700008BFFFF70DFB28463146019A00F0BAFE4B
:1048800005460B4614B02A4658462146BDE8F04D71
:1048900000F0F2BA140F00000000F03F2DE9F041E3
:1048A00006460F4600F028FC041E0D4618BF0120E6
:1048B000284320F00040C0F17F6000F1E040C00FCD
:1048C0000ED0301C18BF0120384320F00040C0F14A
:1048D0007F6000F1E040C00F04BF0120FBF727FE1E
:1048E00020462946BDE8F08110B500290AD0087895
:1048F000002807D005487844FCF786FA002801D044
:10490000002010BD0248784410BD0000520F000086
:104910004A0F000010B500290AD00878002807D0F7
:1049200005487844FCF770FA002801D0002010BD3B
:104930000248784410BD0000420F00003A0F00000A
:1049400021F0004201F00043A2F16052B2F5801F55
:1049500028BFD2F17F6C0BD95FEA001C43EAC20288
:1049600042EB507018BF704728BF20F0010070471D
:10497000B2F5801FBCBF184670474FEA410C1CF5CA
:10498000001F02D2084600F0FCBD70B500F01EFB0F
:1049900000000089FFF7F6BF4FF00040A0F580004F
:1049A0007047000010B591EA030F48BF83F0004341
:1049B00000F19084841A71EB030C05D2121943EBB9
:1049C0000C03001B61EB0C014FEA1154A4EB135CC8
:1049D000DFF81CE11EEA430F18BF9EEA445F00F0B7
:1049E000748021EA045123EA0E0343F48013DCF1BE
:1049F000200E32D322FA0CFE10EB0E0023FA0CFE2E
:104A000041EB0E01CCF1200E03FA0EFE10EB0E006E
:104A1000CCF1200E51F10001B1F5801F32D201EB33
:104A2000045112FA0EF2BDE8104058BF7047401C06
:104A300038BF5FEA420218BF7047002814BF20F059
:104A4000010041F100014FEA410313F5001F38BF97
:104A50007047A1F1C04100F007BB012A43EB0302FC
:104A6000ACF1200CDCF11F0E32BF4FF0000E23FA28
:104A70000CF310EB030041EB0451B4EB115FD0D009
:104A8000A1EB045101F58011490801EB04515FEAE3
:104A900030000ED350F1000038BF12FA0EFE08D1DC
:104AA000BDE81040C9E7401C38BF5FEA4202CAD1E6
:104AB000C3E7BDE810404FEA410313F5001F38BFBC
:104AC0007047A1F1C04100F0CFBA9EEA445F08D020
:104AD00011EA5E0FBDE8104004BF01F00041002064
:104AE0007047BDE8104070B500F070FA64FBBE3E40
:104AF0000000E0FF02494FF0000000F049BD00BF98
:104B00000000F87F491058BFC1F140415B1058BF09
:104B1000C3F140438B42EFF3008070472DE9C04161
:104B200030B4DFF8A4C23CEA111418BF3CEA1314F5
:104B300000F0ED801CEA111481EA030544EAD57403
:104B400018BF1CEA131500F0C880A4EB050404F19B
:104B50007F7404F500344FF0004545EAC12145EA71
:104B6000C32341EA505143EA52534FEAC0204FEA6F
:104B7000C222994208BF904200F09D804FEA13651F
:104B80000FF24416765D4FEA134506FB05F7C7F1B1
:104B9000807706FB07F74FEAD737A7FB0368764213
:104BA000A7FB06CEC8F5803838BFA8F1010807FB7F
:104BB00008E6A6FB028C4FF0000EE6FB03CEDCF10C
:104BC000000CCEF1004E38BFAEF1010EA6FB0C5822
:104BD0004FF00007E6FB0E87A1FB08C6A0FB07CE3F
:104BE00016EB0E064FF0000545F10005E1FB0765E9
:104BF00015F1E04E7EBFA4F580345FEA46066D41B4
:104C000016F1800745F100054FEA172747EA0567C7
:104C10004FEA15254FEA0666A6F1DE46B6F1805F3B
:104C200020D9384605EBC47124F0010C01EB0C11BE
:104C3000BCF1FE6F02D8F0BCBDE8008124425CBF2D
:104C400001F5801E9EEAC47F02D4F0BCBDE800815D
:104C5000244200F13980A1F1C041F0BCBDE800411F
:104C600000F002BA4FEAD02040EA41504FEAD12189
:104C70004FEAD22242EA43524FEAD323A7FB0286ED
:104C800007FB036605FB02661EEA0E0F58BFA6EB84
:104C90000056B6EB00564FEA520E4EEAC37E18EBB2
:104CA0000E0E56EB530EBCD518EB02085E417F1C6E
:104CB00055F10005B5E74FF480154FF000074FF0B0
:104CC00000064FF00008ACE701F1C04101F00041DF
:104CD0004FF00000F0BCBDE800810CEA131511EAAA
:104CE0000C1F00D00CE013EA0C1F00F026804FF0E0
:104CF000000081EA030101F00041F0BCBDE8008141
:104D0000F0BCBDE8004181EA030100F0ADB9F0BCA0
:104D1000BDE8004170B500F059F900BF097EFC3EC6
:104D200000F007B84FF0000081EA030101F00041F4
:104D3000704781EA030100F097B9F0BCBDE800417B
:104D400022494FF000007047FFFDFBF9F7F5F4F240
:104D5000F0EEEDEBE9E8E6E4E3E1E0DEDDDBDAD816
:104D6000D7D5D4D3D1D0CFCDCCCBCAC8C7C6C5C474
:104D7000C2C1C0BFBEBDBCBBBAB9B8B7B6B5B4B38B
:104D8000B2B1B0AFAEADACABAAA9A8A8A7A6A5A476
:104D9000A3A3A2A1A09F9F9E9D9C9C9B9A9999983A
:104DA0009797969595949393929191908F8F8E8EDD
:104DB0008D8C8C8B8B8A898988888787868585846A
:104DC00084838382828181800000FF070000F87F56
:104DD00010F0004248BF4042B0FA80F310FA03F1ED
:104DE0000AD0C3F11D0303F5806302EB03524FEABF
:104DF000415002EBD12170474FF000007047000096
:104E000051EA030C17D41CF5801F58BFBCF5801F56
:104E100000F10680994218BF704708BF9042704762
:104E200007D711F5801F58BF13F5801F19D4994279
:104E30007047894270471CF5801F08D5BCF5801F5C
:104E4000F7D58B4218BF704708BF824270474FF4B6
:104E5000001C1CEB410F38BF1CEB430F01D28B42EF
:104E6000704770B500F0B2F8922449004FF000513D
:104E70004FF08053FFF746BE70B5DFF848C11CEA1B
:104E8000111E1EBF1CEA13159EEA0C0F95EA0C0FAB
:104E900000F06F8081EA03044EEAD47EAE4421EA3A
:104EA0004C1123EA4C1341F4801143F48013AEF10A
:104EB0007F7EA1FB024CA0FB0365361955EB0C0568
:104EC000A1FB034C4CF10003A0FB021C16EB0C06EB
:104ED000654153F10003094218BF46F0010613F47F
:104EE000007F0BD14FEA03314FEA053041EA1551FB
:104EF00040EA165034036FF003020AE04FEAC32180
:104F00004FEAC52041EA555140EA5650F4026FF08D
:104F1000020202EB2E4201EB025585EACE710AD065
:104F20005FEA440C18BF24F0004450F1000041F146
:104F3000000120EAD47040F2FE7C624500D270BDD0
:104F4000A84214BF4FF080444FF04044002E08BFE9
:104F50000024BEF1806FA8BFA1F1C041BDE8704040
:104F600080F2828001F1C04101F000414FF0000069
:104F700070470CEA13159EEA0C0F18BF95EA0C0F48
:104F800006D081EA030E4FF000000EF0004170BD24
:104F900000F01CF88900013E00F007B800F009B8E5
:104FA0004FEA430C5FEA5C5C08D081EA030100F041
:104FB0005BB84FEA410C5FEA5C5CF6D102494FF006
:104FC000000070470000FF070000F87F0EF1020E9E
:104FD0002EF0030E5EF8046B364205D4012A43EB33
:104FE000030515F5001F12D8012841EB010C1CF533
:104FF000001F0CD80ED14FEAD17C0CEB4C0C0CF1FD
:10500000020C15F5001F08BF4CEBD37C04E04FF0F9
:10501000080C01E04FEAD37C0CEB4C0526FA05F6B0
:1050200006F00706B6F1040C06D20EEB860CBDE8BE
:1050300070404CF0010C6047DFE80CF0090B0202F5
:105040004FF00041A1F500214FF0000070BD19465E
:105050001046012851EB010418BFD4F5001484BF99
:10506000002001F0004170BD0808A0F500114FEAD2
:105070003101704753EA010C17D41CF5801F58BF4B
:10508000BCF5801F00F106808B4218BF704708BF37
:105090008242704707D713F5801F58BF11F5801F54
:1050A00019D48B4270479B4270471CF5801F08D56E
:1050B000BCF5801FF7D5994218BF704708BF9042D2
:1050C00070474FF4001C1CEB430F38BF1CEB410F23
:1050D00001D2994270470FB40CBC03BCFFF7C1BEAC
:1050E00010B591EA030F81F000413FF563AC83F006
:1050F000004300F0EFB800002DE9F04101F5801CFD
:10510000BCF5001FC0F2C3804FEA115C21EA0C51CC
:1051100041F480110CF1FD0C5FEA5C0C0CF5C07CD5
:1051200001D340004941890241EA905187023BA4E2
:105130008E0EA45D0A0C04FB04F602FB06F6C6F113
:105140004046A4FB0662F60D46EA422606FB06F43C
:10515000A4FB01235242C3F1404338BF5B1EA6FBB0
:1051600002420024E6FB0324D20B42EA4446A6FB9B
:105170000623A1FB02E2A3FB07E4A4184FF0000200
:1051800052F10002E3FB01426442C2F1404E38BFDB
:10519000AEF1010EA6FB04234FF00002E6FB0E3237
:1051A000A2FB0346B6194FF0000454F10004E2FBE1
:1051B0000264A1FB06E6A4FB07E816EB08064FF025
:1051C000000858F10008E4FB01687642C8F1405835
:1051D00038BFA8F10108A2FB06E4A3FB08E52D19DE
:1051E0004FF0000454F10004E2FB0854A1FB05E673
:1051F000A7FB04E818EB06084FF0000656F100067E
:10520000E1FB048618F1200556F10006A80940EAE2
:105210008660B109A8F11B0808F03F08B8F10A0F31
:105220001CD901EB0C51BDE8F08100BFFCF5EEE8A4
:10523000E2DDD8D3CFCBC7C3C0BDB9B6B4B1AEAC35
:10524000A9A7A5A3A19F9D9B9A9896959392908FAD
:105250008D8C8B898887868584838281A0FB0068FA
:1052600000FB01F208EB4208B8EB872807D5341899
:1052700058EB0104D5D5401C51F10001D1E7341A97
:1052800078EB0104CDD4401E71F10001C9E75FEA5B
:105290004C0C5FEA9C5C0DD105D301F000414FF04E
:1052A0000000BDE8F081BDE8F04170B5FFF78EFE6B
:1052B0006DDBFFBEBDE8F04101494FF000007047D3
:1052C0000000F87F10B591EA030F48BF83F0004358
:1052D0003FF570AB841A71EB030C07D28CF0004CD5
:1052E000121943EB0C03001B61EB0C014FEA115444
:1052F000A4EB135CDFF8A4E11EEA430F18BF9EEA9B
:10530000445F00F0B48021EA045123EA6E03524264
:10531000C3EB6E0338BF5B1EDCF1200E25D322FAEF
:105320000CFE10EB0E0043FA0CFE41EB0E01CCF12B
:10533000200E03FA0EFE10EB0E00CCF1200E51F100
:10534000000129D401EB045112FA0EF2BDE810401D
:1053500058BF7047401C1CBFB2F1004F7047002877
:105360000CBF491C20F00100704712EB020E43EB0A
:10537000030218BF4FF0010E4EEA4202ACF1200CBE
:10538000DCF11E0E56D943FA0CFE10EB0E00CCF1E8
:105390001E0E51F1FF31D5D50EF1010E12FA0EFE9F
:1053A000404141EB010101EB445C5FEA5C5C10D9D8
:1053B00001EB045110EBDE7038BFBEF1004FBDE8C9
:1053C000104018BF704700280CBF491C20F0010096
:1053D000704734D24FEAD42C24F4006411F5001144
:1053E0001BD0B1FA81F20B3AA41AA41ED2F1200309
:1053F000914030FA03F31943904001EBCC7101EB7B
:105400000451002CBDE81040A8BF704701F1C04115
:1054100001F000414FF000007047B0FA80F310FA3D
:1054200003F102D1BDE810407047E41A173C48056B
:10543000C90AE2E701EB0451BDE81040704749108A
:105440004FEA300001EB0451BDE8104002E04FF09C
:10545000000170474A0008BF0042F8D0B2F5001FB3
:1054600028BF704701F000414FF0000070479EEAEE
:10547000445F07D011EA5E0FBDE8104004BF002171
:1054800000207047BDE8104070B5FFF79FFD00BFDA
:1054900040DFF63E104683F0004170470000E0FF19
:1054A00043004FEAD30C4FEA3C0C43401FBF400778
:1054B0000CF1605113F0FE4F70471CF0006F03D1E8
:1054C0000CF00041002070470CF0004343EA50709C
:1054D00040EACC0010B500F00EF800BF00000092CA
:1054E0004FEA0001FFF7C0BD4FF00041A1F50021D8
:1054F0004FF0000070470EF1020E2EF0030E5EF822
:10550000044B244204D44FEA4102B2F17F4F11D838
:105510004FEA4003B3F17F4F0CD80ED14FEAD07C55
:105520000CEB4C0C0CF1020CB2F17F4F08BF4CEBB2
:10553000D17C04E04FF0080C01E04FEAD17C0CEB89
:105540004C0324FA03F404F00704B4F1040C06D26B
:105550000EEB840CBDE810404CF0010C6047DFE816
:105560000CF0070802024FF00040A0F5800010BDCB
:105570000846420018BFD2F1807288BF00F0004098
:1055800010BDFF2141EAD050C0057047FBF706B9B6
:105590000CF00F03092B08BF082000F059800A2BDC
:1055A0000BD0082B18BF704708BF1CF0400F0AD063
:1055B0004FF000004FF0000170471CF0400F18BF83
:1055C0004FF0004070471CF0100F08D000F07F42F1
:1055D00020F0704342EAD3014FEA4370704700F075
:1055E000604021F07F4242EA000201F07F4040EA41
:1055F000727070474FF0FF0C4CF4E06C1CEA1153D2
:105600001CBF9CEA030C9445C2BFDA4201EB025175
:105610007047002B0DD0BCF1000F0FD001F00041FE
:10562000002AA4BF41F0E04141F07F614FF000004B
:10563000704701F000414FF00000704750EA01331D
:105640004FF09B0C18BF4CF0806C7FF453AA70474E
:105650001CF4801F11D01CF4E02F03D06FEACC3172
:10566000490070474FF04050EFF3008222F0704243
:1056700042EA000282F3008870474FF00000704752
:10568000040000080000000000000002000100000B
:105690001000000000000000000000000000F03FCB
:1056A000000000000000F83F0000000000000000C3
:1056B0000000004003B8E23F0000000000000000CE
:1056C00006D0CF43EBFD4C3E033333333333E33F5C
:1056D000FFAB6FDBB66DDB3F4D268F515555D53F88
:1056E00001411DA96074D13F65DBC9934A86CD3F56
:1056F000EF4E454A287ECA3F3E5555555555C53F44
:1057000093BDBE166CC166BF2CDE25AF6A56113F35
:10571000F16BD2C541BDBBBED0A4BE726937663E37
:10572000000000000000000002400000000000A097
:105730000000000005400000000000C8000000005C
:105740000C4000000000409C0000000019400000D8
:105750000020BCBE0000000034400000BFC91B8E0A
:1057600000000004B5400000504BCFD06607E2CFE8
:10577000010000006C4100003E8251AADFEEA73418
:1057800001000000D9420000DCB5A0E23A301F97CA
:10579000FFFFFFFFB4450000FD25A0C8E9A3C14FEE
:1057A000FFFFFFFFFF3F000000000080000000003F
:1057B000FF3F000000000080000000000102000028
:1057C00000000000000001020304060708090000B1
:1057D00000000102030402030405060708090A0B7E
:1057E0000C0D0E0F10102A002D2D2D56434320496D
:1057F00073737565212D2D2D00253032643A2530C7
:1058000032643A253032642C20253032642530321F
:10581000642530326400436865636B20436F6E6EAD
:10582000656374696F6E00007859000800000020FD
:1058300018000000280100089059000818000020F6
:10584000100D0000440100081C000000430000008F
:10585000F8FFFFFF0C0000000E0000000F0000002A
:105860002E0000001001000043000000F8FFFFFFC1
:105870000040404040404040404041414141414063
:105880004040404040404040404040404040404018
:1058900040050202020202020202020202020202A7
:1058A00002202020202020202020200202020202AC
:1058B0000202909090909090101010101010101004
:1058C0001010101010101010101010100202020210
:1058D0000202888888888888080808080808080854
:1058E0000808080808080808080808080202020250
:1058F0004000000000000000000000000000000068
:105900000000000000000000000000000000000097
:105910000000000000000000000000000000000087
:105920000000000000000000000000000000000077
:105930000000000000000000000000000000000067
:105940000000000000000000000000000000000057
:105950000000000000000000000000000000000047
:105960000000000000000000000000000000000037
:105970000000000000000000010000001000000016
:10598000BC0200000024F4008813000000000000A6
:04000005080000ED02
:00000001FF
